{"@nilfoundation/smart-contracts/contracts/Nil.sol":{"NilConfigAbi":{"abi":[{"inputs":[{"components":[{"components":[{"internalType":"uint8[33]","name":"PublicKey","type":"uint8[33]"},{"internalType":"address","name":"WithdrawalAddress","type":"address"}],"internalType":"struct Nil.ValidatorInfo[]","name":"list","type":"tuple[]"}],"internalType":"struct Nil.ParamValidators","name":"","type":"tuple"}],"name":"curr_validators","outputs":[],"stateMutability":"nonpayable","type":"function"},{"inputs":[{"components":[{"internalType":"uint256","name":"gasPriceScale","type":"uint256"},{"internalType":"uint256[]","name":"shards","type":"uint256[]"}],"internalType":"struct Nil.ParamGasPrice","name":"","type":"tuple"}],"name":"gas_price","outputs":[],"stateMutability":"nonpayable","type":"function"}],"evm":{"bytecode":{"linkReferences":{},"object":"608080604052346015576102e6908161001b8239f35b600080fdfe6080604052600436101561001257600080fd5b60003560e01c8063978384d1146100f15763e52108f91461003257600080fd5b346100ec5760203660031901126100ec5760043567ffffffffffffffff81116100ec57604060031982360301126100ec5761006b610252565b908060040135825260248101359067ffffffffffffffff82116100ec570190366023830112156100ec576004820135916100ac6100a784610298565b610272565b92602060048186848152019260051b84010101913683116100ec57602401905b8282106100dc5760208401859052005b81358152602091820191016100cc565b600080fd5b346100ec5760203660031901126100ec5760043567ffffffffffffffff81116100ec57602060031982360301126100ec57604051906020820182811067ffffffffffffffff82111761023c5760405280600401359067ffffffffffffffff82116100ec570190366023830112156100ec5760048201356101736100a782610298565b9260206004610440828786815201940283010101903682116100ec57602401915b8183106101a15750505052005b610440833603126100ec576101b4610252565b9036601f850112156100ec57604051610420810181811067ffffffffffffffff82111761023c57604052806104208601913683116100ec5786905b838210610222575050835235906001600160a01b03821682036100ec578260209283610440950152815201920191610194565b813560ff811681036100ec578152602091820191016101ef565b634e487b7160e01b600052604160045260246000fd5b604051906040820182811067ffffffffffffffff82111761023c57604052565b6040519190601f01601f1916820167ffffffffffffffff81118382101761023c57604052565b67ffffffffffffffff811161023c5760051b6020019056fea2646970667358221220de34a4264d612b8581fb95f30d06b59679e1b3558fe1177cfdb313384bf5fd7064736f6c634300081c0033","opcodes":"PUSH1 0x80 DUP1 PUSH1 0x40 MSTORE CALLVALUE PUSH1 0x15 JUMPI PUSH2 0x2E6 SWAP1 DUP2 PUSH2 0x1B DUP3 CODECOPY RETURN JUMPDEST PUSH1 0x0 DUP1 REVERT INVALID PUSH1 0x80 PUSH1 0x40 MSTORE PUSH1 0x4 CALLDATASIZE LT ISZERO PUSH2 0x12 JUMPI PUSH1 0x0 DUP1 REVERT JUMPDEST PUSH1 0x0 CALLDATALOAD PUSH1 0xE0 SHR DUP1 PUSH4 0x978384D1 EQ PUSH2 0xF1 JUMPI PUSH4 0xE52108F9 EQ PUSH2 0x32 JUMPI PUSH1 0x0 DUP1 REVERT JUMPDEST CALLVALUE PUSH2 0xEC JUMPI PUSH1 0x20 CALLDATASIZE PUSH1 0x3 NOT ADD SLT PUSH2 0xEC JUMPI PUSH1 0x4 CALLDATALOAD PUSH8 0xFFFFFFFFFFFFFFFF DUP2 GT PUSH2 0xEC JUMPI PUSH1 0x40 PUSH1 0x3 NOT DUP3 CALLDATASIZE SUB ADD SLT PUSH2 0xEC JUMPI PUSH2 0x6B PUSH2 0x252 JUMP JUMPDEST SWAP1 DUP1 PUSH1 0x4 ADD CALLDATALOAD DUP3 MSTORE PUSH1 0x24 DUP2 ADD CALLDATALOAD SWAP1 PUSH8 0xFFFFFFFFFFFFFFFF DUP3 GT PUSH2 0xEC JUMPI ADD SWAP1 CALLDATASIZE PUSH1 0x23 DUP4 ADD SLT ISZERO PUSH2 0xEC JUMPI PUSH1 0x4 DUP3 ADD CALLDATALOAD SWAP2 PUSH2 0xAC PUSH2 0xA7 DUP5 PUSH2 0x298 JUMP JUMPDEST PUSH2 0x272 JUMP JUMPDEST SWAP3 PUSH1 0x20 PUSH1 0x4 DUP2 DUP7 DUP5 DUP2 MSTORE ADD SWAP3 PUSH1 0x5 SHL DUP5 ADD ADD ADD SWAP2 CALLDATASIZE DUP4 GT PUSH2 0xEC JUMPI PUSH1 0x24 ADD SWAP1 JUMPDEST DUP3 DUP3 LT PUSH2 0xDC JUMPI PUSH1 0x20 DUP5 ADD DUP6 SWAP1 MSTORE STOP JUMPDEST DUP2 CALLDATALOAD DUP2 MSTORE PUSH1 0x20 SWAP2 DUP3 ADD SWAP2 ADD PUSH2 0xCC JUMP JUMPDEST PUSH1 0x0 DUP1 REVERT JUMPDEST CALLVALUE PUSH2 0xEC JUMPI PUSH1 0x20 CALLDATASIZE PUSH1 0x3 NOT ADD SLT PUSH2 0xEC JUMPI PUSH1 0x4 CALLDATALOAD PUSH8 0xFFFFFFFFFFFFFFFF DUP2 GT PUSH2 0xEC JUMPI PUSH1 0x20 PUSH1 0x3 NOT DUP3 CALLDATASIZE SUB ADD SLT PUSH2 0xEC JUMPI PUSH1 0x40 MLOAD SWAP1 PUSH1 0x20 DUP3 ADD DUP3 DUP2 LT PUSH8 0xFFFFFFFFFFFFFFFF DUP3 GT OR PUSH2 0x23C JUMPI PUSH1 0x40 MSTORE DUP1 PUSH1 0x4 ADD CALLDATALOAD SWAP1 PUSH8 0xFFFFFFFFFFFFFFFF DUP3 GT PUSH2 0xEC JUMPI ADD SWAP1 CALLDATASIZE PUSH1 0x23 DUP4 ADD SLT ISZERO PUSH2 0xEC JUMPI PUSH1 0x4 DUP3 ADD CALLDATALOAD PUSH2 0x173 PUSH2 0xA7 DUP3 PUSH2 0x298 JUMP JUMPDEST SWAP3 PUSH1 0x20 PUSH1 0x4 PUSH2 0x440 DUP3 DUP8 DUP7 DUP2 MSTORE ADD SWAP5 MUL DUP4 ADD ADD ADD SWAP1 CALLDATASIZE DUP3 GT PUSH2 0xEC JUMPI PUSH1 0x24 ADD SWAP2 JUMPDEST DUP2 DUP4 LT PUSH2 0x1A1 JUMPI POP POP POP MSTORE STOP JUMPDEST PUSH2 0x440 DUP4 CALLDATASIZE SUB SLT PUSH2 0xEC JUMPI PUSH2 0x1B4 PUSH2 0x252 JUMP JUMPDEST SWAP1 CALLDATASIZE PUSH1 0x1F DUP6 ADD SLT ISZERO PUSH2 0xEC JUMPI PUSH1 0x40 MLOAD PUSH2 0x420 DUP2 ADD DUP2 DUP2 LT PUSH8 0xFFFFFFFFFFFFFFFF DUP3 GT OR PUSH2 0x23C JUMPI PUSH1 0x40 MSTORE DUP1 PUSH2 0x420 DUP7 ADD SWAP2 CALLDATASIZE DUP4 GT PUSH2 0xEC JUMPI DUP7 SWAP1 JUMPDEST DUP4 DUP3 LT PUSH2 0x222 JUMPI POP POP DUP4 MSTORE CALLDATALOAD SWAP1 PUSH1 0x1 PUSH1 0x1 PUSH1 0xA0 SHL SUB DUP3 AND DUP3 SUB PUSH2 0xEC JUMPI DUP3 PUSH1 0x20 SWAP3 DUP4 PUSH2 0x440 SWAP6 ADD MSTORE DUP2 MSTORE ADD SWAP3 ADD SWAP2 PUSH2 0x194 JUMP JUMPDEST DUP2 CALLDATALOAD PUSH1 0xFF DUP2 AND DUP2 SUB PUSH2 0xEC JUMPI DUP2 MSTORE PUSH1 0x20 SWAP2 DUP3 ADD SWAP2 ADD PUSH2 0x1EF JUMP JUMPDEST PUSH4 0x4E487B71 PUSH1 0xE0 SHL PUSH1 0x0 MSTORE PUSH1 0x41 PUSH1 0x4 MSTORE PUSH1 0x24 PUSH1 0x0 REVERT JUMPDEST PUSH1 0x40 MLOAD SWAP1 PUSH1 0x40 DUP3 ADD DUP3 DUP2 LT PUSH8 0xFFFFFFFFFFFFFFFF DUP3 GT OR PUSH2 0x23C JUMPI PUSH1 0x40 MSTORE JUMP JUMPDEST PUSH1 0x40 MLOAD SWAP2 SWAP1 PUSH1 0x1F ADD PUSH1 0x1F NOT AND DUP3 ADD PUSH8 0xFFFFFFFFFFFFFFFF DUP2 GT DUP4 DUP3 LT OR PUSH2 0x23C JUMPI PUSH1 0x40 MSTORE JUMP JUMPDEST PUSH8 0xFFFFFFFFFFFFFFFF DUP2 GT PUSH2 0x23C JUMPI PUSH1 0x5 SHL PUSH1 0x20 ADD SWAP1 JUMP INVALID LOG2 PUSH5 0x6970667358 0x22 SLT KECCAK256 0xDE CALLVALUE LOG4 0x26 0x4D PUSH2 0x2B85 DUP2 0xFB SWAP6 RETURN 0xD MOD 0xB5 SWAP7 PUSH26 0xE1B3558FE1177CFDB313384BF5FD7064736F6C634300081C0033 "},"methodIdentifiers":{"curr_validators(((uint8[33],address)[]))":"978384d1","gas_price((uint256,uint256[]))":"e52108f9"}}}}}