{"contracts/LendingPool.sol":{"LendingPool":{"abi":[{"inputs":[{"internalType":"address","name":"_globalLedger","type":"address"},{"internalType":"address","name":"_interestManager","type":"address"},{"internalType":"address","name":"_oracle","type":"address"},{"internalType":"TokenId","name":"_usdt","type":"address"},{"internalType":"TokenId","name":"_eth","type":"address"}],"stateMutability":"nonpayable","type":"constructor"},{"inputs":[{"internalType":"uint256","name":"amount","type":"uint256"},{"internalType":"TokenId","name":"borrowToken","type":"address"}],"name":"borrow","outputs":[],"stateMutability":"payable","type":"function"},{"inputs":[{"internalType":"uint256","name":"amount","type":"uint256"}],"name":"burnToken","outputs":[],"stateMutability":"nonpayable","type":"function"},{"inputs":[],"name":"deposit","outputs":[],"stateMutability":"payable","type":"function"},{"inputs":[],"name":"eth","outputs":[{"internalType":"TokenId","name":"","type":"address"}],"stateMutability":"view","type":"function"},{"inputs":[{"internalType":"bool","name":"success","type":"bool"},{"internalType":"bytes","name":"returnData","type":"bytes"},{"internalType":"bytes","name":"context","type":"bytes"}],"name":"finalizeLoan","outputs":[],"stateMutability":"payable","type":"function"},{"inputs":[],"name":"getOwnTokenBalance","outputs":[{"internalType":"uint256","name":"","type":"uint256"}],"stateMutability":"view","type":"function"},{"inputs":[{"internalType":"address","name":"account","type":"address"}],"name":"getTokenBalanceOf","outputs":[{"internalType":"uint256","name":"","type":"uint256"}],"stateMutability":"view","type":"function"},{"inputs":[],"name":"getTokenId","outputs":[{"internalType":"TokenId","name":"","type":"address"}],"stateMutability":"view","type":"function"},{"inputs":[],"name":"getTokenName","outputs":[{"internalType":"string","name":"","type":"string"}],"stateMutability":"view","type":"function"},{"inputs":[],"name":"getTokenTotalSupply","outputs":[{"internalType":"uint256","name":"","type":"uint256"}],"stateMutability":"view","type":"function"},{"inputs":[],"name":"globalLedger","outputs":[{"internalType":"address","name":"","type":"address"}],"stateMutability":"view","type":"function"},{"inputs":[{"internalType":"bool","name":"success","type":"bool"},{"internalType":"bytes","name":"returnData","type":"bytes"},{"internalType":"bytes","name":"context","type":"bytes"}],"name":"handleRepayment","outputs":[],"stateMutability":"payable","type":"function"},{"inputs":[],"name":"interestManager","outputs":[{"internalType":"address","name":"","type":"address"}],"stateMutability":"view","type":"function"},{"inputs":[{"internalType":"uint256","name":"amount","type":"uint256"}],"name":"mintToken","outputs":[],"stateMutability":"nonpayable","type":"function"},{"inputs":[],"name":"oracle","outputs":[{"internalType":"address","name":"","type":"address"}],"stateMutability":"view","type":"function"},{"inputs":[{"internalType":"bool","name":"success","type":"bool"},{"internalType":"bytes","name":"returnData","type":"bytes"},{"internalType":"bytes","name":"context","type":"bytes"}],"name":"processLoan","outputs":[],"stateMutability":"payable","type":"function"},{"inputs":[{"internalType":"bool","name":"success","type":"bool"},{"internalType":"bytes","name":"returnData","type":"bytes"},{"internalType":"bytes","name":"context","type":"bytes"}],"name":"processRepayment","outputs":[],"stateMutability":"payable","type":"function"},{"inputs":[{"internalType":"bool","name":"success","type":"bool"},{"internalType":"bytes","name":"context","type":"bytes"}],"name":"releaseCollateral","outputs":[],"stateMutability":"payable","type":"function"},{"inputs":[],"name":"repayLoan","outputs":[],"stateMutability":"payable","type":"function"},{"inputs":[{"internalType":"bool","name":"success","type":"bool"},{"internalType":"bytes","name":"returnData","type":"bytes"},{"internalType":"bytes","name":"context","type":"bytes"}],"name":"sendCollateral","outputs":[],"stateMutability":"payable","type":"function"},{"inputs":[{"internalType":"address","name":"to","type":"address"},{"internalType":"TokenId","name":"tokenId","type":"address"},{"internalType":"uint256","name":"amount","type":"uint256"}],"name":"sendToken","outputs":[],"stateMutability":"nonpayable","type":"function"},{"inputs":[{"internalType":"string","name":"name","type":"string"}],"name":"setTokenName","outputs":[],"stateMutability":"nonpayable","type":"function"},{"inputs":[],"name":"usdt","outputs":[{"internalType":"TokenId","name":"","type":"address"}],"stateMutability":"view","type":"function"}],"evm":{"bytecode":{"linkReferences":{},"object":"6080346100e657601f611bd838819003918201601f19168301916001600160401b038311848410176100eb5780849260a0946040528339810103126100e65761004781610101565b9061005460208201610101565b61006060408301610101565b90610079608061007260608601610101565b9401610101565b600280546001600160a01b03199081166001600160a01b0397881617909155600380548216938716939093179092556004805483169386169390931790925560058054821693851693909317909255600680549092169216919091179055604051611ac290816101168239f35b600080fd5b634e487b7160e01b600052604160045260246000fd5b51906001600160a01b03821682036100e65756fe608080604052600436101561001357600080fd5b60003560e01c908163010a38f5146111fc575080630998702f146110d157806310401774146110a85780632f48ab7d1461107f5780632fdcfbd214610f6857806346fe543114610e235780634761a3ee14610c755780634b3fd14814610b7757806357df844b14610b59578063659dbf9914610a535780637b47ec1a146109315780637dc0d1d01461090857806383894548146108e3578063862b092b1461080f5780638c7c9e0c146107e6578063a4f29aad14610649578063c59e1c8f146104d6578063c634d032146103f6578063d0e30db014610372578063d19b9b751461034d578063ee065e1114610324578063eeaf7d8e1461018d5763f966ade71461011c57600080fd5b600036600319011261018857610186604051637453ed4760e11b602082015233602482015260248152610150604482611231565b60405163659dbf9960e01b602082015233602482015260248152610175604482611231565b6002546001600160a01b0316611653565b005b600080fd5b610196366112f0565b9091156102df57606081805181010312610188576101b660208201611389565b6101c7606060408401519301611389565b83516020858101956001600160a01b03909416949293918201919091031261018857610207610237916064610200610186975183611430565b04906115e5565b602061022d610214611982565b6001815114806102b5575b6102289061152e565b6114eb565b510151101561156a565b6040516306eb746160e51b6020820152602481018390526001600160a01b038216604482015260006064808301919091528152916101759061027a608485611231565b604051630998702f60e01b60208201526001600160a01b0391821660248201529216604483015281606481015b03601f198101835282611231565b506102286001600160a01b036102ca836114eb565b5151166001600160a01b03881614905061021f565b60405162461bcd60e51b815260206004820152601960248201527f496e74657265737420726174652063616c6c206661696c6564000000000000006044820152606490fd5b34610188576000366003190112610188576003546040516001600160a01b039091168152602090f35b3461018857600036600319011261018857602061036a3030611913565b604051908152f35b600036600319011261018857610186610389611982565b6103e360206103ab6001600160a01b036103a2856114eb565b515116936114eb565b51015160405163e859930760e01b60208201523360248201526001600160a01b039093166044840152606483015281608481016102a7565b60025430906001600160a01b03166118ae565b346101885760203660031901126101885760043561041b610415611734565b156113be565b604051632cbbbfe160e11b81526004810182905260016024820152602081604481600060d05af19081156104ca5760009161049b575b501561046857610463906000546115e5565b600055005b60405162461bcd60e51b815260206004820152600b60248201526a135a5b9d0819985a5b195960aa1b6044820152606490fd5b6104bd915060203d6020116104c3575b6104b58183611231565b8101906115f2565b82610451565b503d6104ab565b6040513d6000823e3d90fd5b6104df366112f0565b909115610604576104fa81602080809451830101910161139d565b9190928181518183019384916000940101031261060157505180156105bc576105786101869361052861149c565b6040519461053586611215565b6001600160a01b03168086526020860185905294610552826114eb565b5261055c816114eb565b5061056561150e565b91309081906001600160a01b0316611831565b60018060a01b03600354169060405192636009720760e11b60208501526024840152604483015260006064830152606482526105b5608483611231565b30906118ae565b60405162461bcd60e51b815260206004820152601860248201527f4e6f20636f6c6c61746572616c20746f2072656c6561736500000000000000006044820152606490fd5b80fd5b60405162461bcd60e51b815260206004820152601d60248201527f4661696c656420746f20726574726965766520636f6c6c61746572616c0000006044820152606490fd5b346101885760203660031901126101885760043567ffffffffffffffff811161018857366023820112156101885761068b90369060248160040135910161126f565b610696610415611734565b805167ffffffffffffffff81116107d0576106b26001546115ab565b601f8111610763575b50602091601f82116001146106f7579181926000926106ec575b5050600019600383901b1c1916600191821b179055005b0151905082806106d5565b601f198216926001600052600080516020611a6d8339815191529160005b85811061074b57508360019510610732575b505050811b01600155005b015160001960f88460031b161c19169055828080610727565b91926020600181928685015181550194019201610715565b6001600052601f820160051c600080516020611a6d8339815191520190602083106107ba575b601f0160051c600080516020611a6d83398151915201905b8181106107ae57506106bb565b600081556001016107a1565b600080516020611a6d8339815191529150610789565b634e487b7160e01b600052604160045260246000fd5b34610188576000366003190112610188576006546040516001600160a01b039091168152602090f35b34610188576000366003190112610188576040516000600154610831816115ab565b80845290600181169081156108bf5750600114610871575b61086d8361085981850382611231565b604051918291602083526020830190611348565b0390f35b9190506001600052600080516020611a6d833981519152916000905b8082106108a557509091508101602001610859610849565b91926001816020925483858801015201910190929161088d565b60ff191660208086019190915291151560051b840190910191506108599050610849565b3461018857602036600319011261018857602061036a6109016112c4565b3090611913565b34610188576000366003190112610188576004546040516001600160a01b039091168152602090f35b3461018857602036600319011261018857600435610950610415611734565b8060005410610a0e57604051632cbbbfe160e11b815281600482015260006024820152602081604481600060d05af19081156104ca576000916109ef575b50156109bc576000549081039081116109a657600055005b634e487b7160e01b600052601160045260246000fd5b60405162461bcd60e51b815260206004820152600b60248201526a109d5c9b8819985a5b195960aa1b6044820152606490fd5b610a08915060203d6020116104c3576104b58183611231565b8261098e565b60405162461bcd60e51b815260206004820152601e60248201527f4275726e206661696c65643a206e6f7420656e6f75676820746f6b656e7300006044820152606490fd5b610a68610a5f366112f0565b91929092611443565b602081805181010312610188576001600160a01b0390610a8a90602001611389565b169060408180518101031261018857610aaa604060208301519201611389565b918115610b235760405163292bdab360e11b602082015260048152610186939092610ad6602485611231565b604051637757bec760e11b6020820152602481019390935260448301526001600160a01b03166064808301919091528152610b12608482611231565b6003546001600160a01b0316611653565b60405162461bcd60e51b815260206004820152600e60248201526d27379030b1ba34bb32903637b0b760911b6044820152606490fd5b34610188576000366003190112610188576020600054604051908152f35b604036600319011261018857610186600435610b916112da565b6005546001600160a01b03808316939291169083821490610bd0908490610bc990848015610c61575b610bc39061152e565b30611913565b101561156a565b15610c5c57506006546001600160a01b03165b6040516341976e0960e01b60208201526024808201859052815292610c09604485611231565b6040516346fe543160e01b6020820152336024820152604481019390935260648301526001600160a01b03166084808301919091528152610c4b60a482611231565b6004546001600160a01b0316611653565b610be3565b506006546001600160a01b03168814610bba565b610c89610c81366112f0565b929091611443565b60808280518101031261018857610ca260208301611389565b916040810151926080610cb760608401611389565b92015183516001600160a01b039092169390916020808301929182019190910312610188575110610dde576040516306eb746160e51b60208201526001600160a01b0383811660248301528216604482015260648082018590528152610186939092610da290610d28608486611231565b600254604051602096610d54929091906001600160a01b0316610d4b8983611231565b60008252611653565b610d5c61149c565b60405194610d6986611215565b6001600160a01b031680865286860185905294610d85826114eb565b52610d8f816114eb565b50610d9861150e565b9130903090611831565b60018060a01b03600354169160405193636009720760e11b908501526024840152604483015260016064830152606482526105b5608483611231565b60405162461bcd60e51b815260206004820152601760248201527f496e73756666696369656e7420636f6c6c61746572616c0000000000000000006044820152606490fd5b610e2c366112f0565b9115610f2e5760808280518101031261018857610e4b60208301611389565b90604083015191610e6a6080610e6360608701611389565b9501611389565b82516001600160a01b03909216929091602080830192918201919091031261018857610e97905184611430565b6078810290808204607814901517156109a65760405163c35082a960e01b60208201526001600160a01b03848116602483015292909216604480840191909152825261018694919360649290610eed8487611231565b6040516323b0d1f760e11b6020820152602481019590955260448501526001600160a01b03168284015204608480830191909152815261017560a482611231565b60405162461bcd60e51b815260206004820152601260248201527113dc9858db194818d85b1b0819985a5b195960721b6044820152606490fd5b3461018857606036600319011261018857610f816112c4565b611043610f8c6112da565b91610f98610415611734565b610fa061149c565b9260405190610fae82611215565b6001600160a01b031681526044356020820152610fca846114eb565b52610fd4836114eb565b506020928391611055604051610fea8582611231565b60008152604051958694859463f697565360e01b8652600060048701526000602487015260018060a01b031660448601526000606486015260006084860152600060a486015261010060c486015261010485019061160a565b8381036003190160e485015290611348565b0381600060fd5af180156104ca5761106957005b8161018692903d106104c3576104b58183611231565b34610188576000366003190112610188576005546040516001600160a01b039091168152602090f35b34610188576000366003190112610188576002546040516001600160a01b039091168152602090f35b6040366003190112610188576004358015908115036101885760243567ffffffffffffffff81116101885761110a9036906004016112a6565b906111c057611125816020806101869451830101910161139d565b6005546001600160a01b0392831692908116911681036111bb57506006546001600160a01b03165b60405163c35082a960e01b60208201526001600160a01b03838116602483015282166044808301919091528152916101759061118a606485611231565b60405163c59e1c8f60e01b60208201526001600160a01b0391821660248201529216604483015281606481016102a7565b61114d565b60405162461bcd60e51b8152602060048201526014602482015273131bd85b8818db19585c9a5b99c819985a5b195960621b6044820152606490fd5b3461018857600036600319011261018857602090308152f35b6040810190811067ffffffffffffffff8211176107d057604052565b90601f8019910116810190811067ffffffffffffffff8211176107d057604052565b67ffffffffffffffff81116107d057601f01601f191660200190565b92919261127b82611253565b916112896040519384611231565b829481845281830111610188578281602093846000960137010152565b9080601f83011215610188578160206112c19335910161126f565b90565b600435906001600160a01b038216820361018857565b602435906001600160a01b038216820361018857565b6060600319820112610188576004358015158103610188579160243567ffffffffffffffff81116101885782611328916004016112a6565b916044359067ffffffffffffffff8211610188576112c1916004016112a6565b919082519283825260005b848110611374575050826000602080949584010152601f8019910116010190565b80602080928401015182828601015201611353565b51906001600160a01b038216820361018857565b9190826040910312610188576112c160206113b784611389565b9301611389565b156113c557565b60405162461bcd60e51b815260206004820152603a60248201527f547279696e6720746f2063616c6c2065787465726e616c2066756e6374696f6e60448201527f207769746820696e7465726e616c207472616e73616374696f6e0000000000006064820152608490fd5b818102929181159184041417156109a657565b1561144a57565b60405162461bcd60e51b815260206004820152601260248201527113195919d95c8818d85b1b0819985a5b195960721b6044820152606490fd5b67ffffffffffffffff81116107d05760051b60200190565b604080519091906114ad8382611231565b6001815291601f19018260005b8281106114c657505050565b6020906040516114d581611215565b60008152600083820152828285010152016114ba565b8051156114f85760200190565b634e487b7160e01b600052603260045260246000fd5b6040519061151d604083611231565b6002825261060f60f31b6020830152565b1561153557565b60405162461bcd60e51b815260206004820152600d60248201526c24b73b30b634b2103a37b5b2b760991b6044820152606490fd5b1561157157565b60405162461bcd60e51b8152602060048201526012602482015271496e73756666696369656e742066756e647360701b6044820152606490fd5b90600182811c921680156115db575b60208310146115c557565b634e487b7160e01b600052602260045260246000fd5b91607f16916115ba565b919082018092116109a657565b90816020910312610188575180151581036101885790565b906020808351928381520192019060005b8181106116285750505090565b825180516001600160a01b03168552602090810151818601526040909401939092019160010161161b565b60405163100897a560e21b81526001600160a01b03909116600482015260a0602482015260605160a48201819052909291839160c48301919060809060005b8181106117065750506298968060448501525082820360031901606484015260209383926116d6926116c49190611348565b83810360031901608485015290611348565b0381600060d85af180156104ca576116eb5750565b6117039060203d6020116104c3576104b58183611231565b50565b825180516001600160a01b031686526020908101518187015288965060409095019490920191600101611692565b600080606051608060ff5afa3d15611829573d9061175182611253565b9161175f6040519384611231565b82523d6000602084013e5b156117e55780511561178957806020806112c1935183010191016115f2565b60405162461bcd60e51b815260206004820152602e60248201527f2749535f494e5445524e414c5f5452414e53414354494f4e272072657475726e60448201526d7320696e76616c6964206461746160901b6064820152608490fd5b606460405162461bcd60e51b815260206004820152602060248201527f507265636f6d70696c656420636f6e74726163742063616c6c206661696c65646044820152fd5b60609061176a565b60405163f697565360e01b815260006004820152600160248201526001600160a01b03918216604482015291811660648301529091166084820152620f424060a482015261010060c4820152916020918391829161189991906110439061010485019061160a565b0381600060fd5af180156104ca576116eb5750565b60405163f697565360e01b8152600060048201819052602482018190526001600160a01b0392831660448301526064820181905291909216608483015260a482015261010060c48201529060209082908190611899906110436101048401606061160a565b604051639614ddaf60e01b81526001600160a01b0392831660048201529116602482015260208160448160d15afa9081156104ca57600091611953575090565b90506020813d60201161197a575b8161196e60209383611231565b81010312610188575190565b3d9150611961565b6040516304016d8760e51b81526000816004818360d35af19081156104ca576000916119ac575090565b903d8082843e6119bc8184611231565b820191602081840312611a685780519067ffffffffffffffff8211611a64570182601f82011215611a68578051916119f383611484565b93611a016040519586611231565b83855260208086019460061b84010192818411611a6457602001935b838510611a2c57505050505090565b604085830312611a645760206040918251611a4681611215565b611a4f88611389565b81528288015183820152815201940193611a1d565b8280fd5b5080fdfeb10e2d527612073b26eecdfd717e6a320cf44b4afac2b0732d9fcbe2b7fa0cf6a2646970667358221220b62ca41e96a0ee7f7ead43200e07b38c911d6d2c755cdba99d335db5252f958164736f6c634300081c0033","opcodes":"PUSH1 0x80 CALLVALUE PUSH2 0xE6 JUMPI PUSH1 0x1F PUSH2 0x1BD8 CODESIZE DUP2 SWAP1 SUB SWAP2 DUP3 ADD PUSH1 0x1F NOT AND DUP4 ADD SWAP2 PUSH1 0x1 PUSH1 0x1 PUSH1 0x40 SHL SUB DUP4 GT DUP5 DUP5 LT OR PUSH2 0xEB JUMPI DUP1 DUP5 SWAP3 PUSH1 0xA0 SWAP5 PUSH1 0x40 MSTORE DUP4 CODECOPY DUP2 ADD SUB SLT PUSH2 0xE6 JUMPI PUSH2 0x47 DUP2 PUSH2 0x101 JUMP JUMPDEST SWAP1 PUSH2 0x54 PUSH1 0x20 DUP3 ADD PUSH2 0x101 JUMP JUMPDEST PUSH2 0x60 PUSH1 0x40 DUP4 ADD PUSH2 0x101 JUMP JUMPDEST SWAP1 PUSH2 0x79 PUSH1 0x80 PUSH2 0x72 PUSH1 0x60 DUP7 ADD PUSH2 0x101 JUMP JUMPDEST SWAP5 ADD PUSH2 0x101 JUMP JUMPDEST PUSH1 0x2 DUP1 SLOAD PUSH1 0x1 PUSH1 0x1 PUSH1 0xA0 SHL SUB NOT SWAP1 DUP2 AND PUSH1 0x1 PUSH1 0x1 PUSH1 0xA0 SHL SUB SWAP8 DUP9 AND OR SWAP1 SWAP2 SSTORE PUSH1 0x3 DUP1 SLOAD DUP3 AND SWAP4 DUP8 AND SWAP4 SWAP1 SWAP4 OR SWAP1 SWAP3 SSTORE PUSH1 0x4 DUP1 SLOAD DUP4 AND SWAP4 DUP7 AND SWAP4 SWAP1 SWAP4 OR SWAP1 SWAP3 SSTORE PUSH1 0x5 DUP1 SLOAD DUP3 AND SWAP4 DUP6 AND SWAP4 SWAP1 SWAP4 OR SWAP1 SWAP3 SSTORE PUSH1 0x6 DUP1 SLOAD SWAP1 SWAP3 AND SWAP3 AND SWAP2 SWAP1 SWAP2 OR SWAP1 SSTORE PUSH1 0x40 MLOAD PUSH2 0x1AC2 SWAP1 DUP2 PUSH2 0x116 DUP3 CODECOPY RETURN JUMPDEST PUSH1 0x0 DUP1 REVERT JUMPDEST PUSH4 0x4E487B71 PUSH1 0xE0 SHL PUSH1 0x0 MSTORE PUSH1 0x41 PUSH1 0x4 MSTORE PUSH1 0x24 PUSH1 0x0 REVERT JUMPDEST MLOAD SWAP1 PUSH1 0x1 PUSH1 0x1 PUSH1 0xA0 SHL SUB DUP3 AND DUP3 SUB PUSH2 0xE6 JUMPI JUMP INVALID PUSH1 0x80 DUP1 PUSH1 0x40 MSTORE PUSH1 0x4 CALLDATASIZE LT ISZERO PUSH2 0x13 JUMPI PUSH1 0x0 DUP1 REVERT JUMPDEST PUSH1 0x0 CALLDATALOAD PUSH1 0xE0 SHR SWAP1 DUP2 PUSH4 0x10A38F5 EQ PUSH2 0x11FC JUMPI POP DUP1 PUSH4 0x998702F EQ PUSH2 0x10D1 JUMPI DUP1 PUSH4 0x10401774 EQ PUSH2 0x10A8 JUMPI DUP1 PUSH4 0x2F48AB7D EQ PUSH2 0x107F JUMPI DUP1 PUSH4 0x2FDCFBD2 EQ PUSH2 0xF68 JUMPI DUP1 PUSH4 0x46FE5431 EQ PUSH2 0xE23 JUMPI DUP1 PUSH4 0x4761A3EE EQ PUSH2 0xC75 JUMPI DUP1 PUSH4 0x4B3FD148 EQ PUSH2 0xB77 JUMPI DUP1 PUSH4 0x57DF844B EQ PUSH2 0xB59 JUMPI DUP1 PUSH4 0x659DBF99 EQ PUSH2 0xA53 JUMPI DUP1 PUSH4 0x7B47EC1A EQ PUSH2 0x931 JUMPI DUP1 PUSH4 0x7DC0D1D0 EQ PUSH2 0x908 JUMPI DUP1 PUSH4 0x83894548 EQ PUSH2 0x8E3 JUMPI DUP1 PUSH4 0x862B092B EQ PUSH2 0x80F JUMPI DUP1 PUSH4 0x8C7C9E0C EQ PUSH2 0x7E6 JUMPI DUP1 PUSH4 0xA4F29AAD EQ PUSH2 0x649 JUMPI DUP1 PUSH4 0xC59E1C8F EQ PUSH2 0x4D6 JUMPI DUP1 PUSH4 0xC634D032 EQ PUSH2 0x3F6 JUMPI DUP1 PUSH4 0xD0E30DB0 EQ PUSH2 0x372 JUMPI DUP1 PUSH4 0xD19B9B75 EQ PUSH2 0x34D JUMPI DUP1 PUSH4 0xEE065E11 EQ PUSH2 0x324 JUMPI DUP1 PUSH4 0xEEAF7D8E EQ PUSH2 0x18D JUMPI PUSH4 0xF966ADE7 EQ PUSH2 0x11C JUMPI PUSH1 0x0 DUP1 REVERT JUMPDEST PUSH1 0x0 CALLDATASIZE PUSH1 0x3 NOT ADD SLT PUSH2 0x188 JUMPI PUSH2 0x186 PUSH1 0x40 MLOAD PUSH4 0x7453ED47 PUSH1 0xE1 SHL PUSH1 0x20 DUP3 ADD MSTORE CALLER PUSH1 0x24 DUP3 ADD MSTORE PUSH1 0x24 DUP2 MSTORE PUSH2 0x150 PUSH1 0x44 DUP3 PUSH2 0x1231 JUMP JUMPDEST PUSH1 0x40 MLOAD PUSH4 0x659DBF99 PUSH1 0xE0 SHL PUSH1 0x20 DUP3 ADD MSTORE CALLER PUSH1 0x24 DUP3 ADD MSTORE PUSH1 0x24 DUP2 MSTORE PUSH2 0x175 PUSH1 0x44 DUP3 PUSH2 0x1231 JUMP JUMPDEST PUSH1 0x2 SLOAD PUSH1 0x1 PUSH1 0x1 PUSH1 0xA0 SHL SUB AND PUSH2 0x1653 JUMP JUMPDEST STOP JUMPDEST PUSH1 0x0 DUP1 REVERT JUMPDEST PUSH2 0x196 CALLDATASIZE PUSH2 0x12F0 JUMP JUMPDEST SWAP1 SWAP2 ISZERO PUSH2 0x2DF JUMPI PUSH1 0x60 DUP2 DUP1 MLOAD DUP2 ADD SUB SLT PUSH2 0x188 JUMPI PUSH2 0x1B6 PUSH1 0x20 DUP3 ADD PUSH2 0x1389 JUMP JUMPDEST PUSH2 0x1C7 PUSH1 0x60 PUSH1 0x40 DUP5 ADD MLOAD SWAP4 ADD PUSH2 0x1389 JUMP JUMPDEST DUP4 MLOAD PUSH1 0x20 DUP6 DUP2 ADD SWAP6 PUSH1 0x1 PUSH1 0x1 PUSH1 0xA0 SHL SUB SWAP1 SWAP5 AND SWAP5 SWAP3 SWAP4 SWAP2 DUP3 ADD SWAP2 SWAP1 SWAP2 SUB SLT PUSH2 0x188 JUMPI PUSH2 0x207 PUSH2 0x237 SWAP2 PUSH1 0x64 PUSH2 0x200 PUSH2 0x186 SWAP8 MLOAD DUP4 PUSH2 0x1430 JUMP JUMPDEST DIV SWAP1 PUSH2 0x15E5 JUMP JUMPDEST PUSH1 0x20 PUSH2 0x22D PUSH2 0x214 PUSH2 0x1982 JUMP JUMPDEST PUSH1 0x1 DUP2 MLOAD EQ DUP1 PUSH2 0x2B5 JUMPI JUMPDEST PUSH2 0x228 SWAP1 PUSH2 0x152E JUMP JUMPDEST PUSH2 0x14EB JUMP JUMPDEST MLOAD ADD MLOAD LT ISZERO PUSH2 0x156A JUMP JUMPDEST PUSH1 0x40 MLOAD PUSH4 0x6EB7461 PUSH1 0xE5 SHL PUSH1 0x20 DUP3 ADD MSTORE PUSH1 0x24 DUP2 ADD DUP4 SWAP1 MSTORE PUSH1 0x1 PUSH1 0x1 PUSH1 0xA0 SHL SUB DUP3 AND PUSH1 0x44 DUP3 ADD MSTORE PUSH1 0x0 PUSH1 0x64 DUP1 DUP4 ADD SWAP2 SWAP1 SWAP2 MSTORE DUP2 MSTORE SWAP2 PUSH2 0x175 SWAP1 PUSH2 0x27A PUSH1 0x84 DUP6 PUSH2 0x1231 JUMP JUMPDEST PUSH1 0x40 MLOAD PUSH4 0x998702F PUSH1 0xE0 SHL PUSH1 0x20 DUP3 ADD MSTORE PUSH1 0x1 PUSH1 0x1 PUSH1 0xA0 SHL SUB SWAP2 DUP3 AND PUSH1 0x24 DUP3 ADD MSTORE SWAP3 AND PUSH1 0x44 DUP4 ADD MSTORE DUP2 PUSH1 0x64 DUP2 ADD JUMPDEST SUB PUSH1 0x1F NOT DUP2 ADD DUP4 MSTORE DUP3 PUSH2 0x1231 JUMP JUMPDEST POP PUSH2 0x228 PUSH1 0x1 PUSH1 0x1 PUSH1 0xA0 SHL SUB PUSH2 0x2CA DUP4 PUSH2 0x14EB JUMP JUMPDEST MLOAD MLOAD AND PUSH1 0x1 PUSH1 0x1 PUSH1 0xA0 SHL SUB DUP9 AND EQ SWAP1 POP PUSH2 0x21F JUMP JUMPDEST PUSH1 0x40 MLOAD PUSH3 0x461BCD PUSH1 0xE5 SHL DUP2 MSTORE PUSH1 0x20 PUSH1 0x4 DUP3 ADD MSTORE PUSH1 0x19 PUSH1 0x24 DUP3 ADD MSTORE PUSH32 0x496E74657265737420726174652063616C6C206661696C656400000000000000 PUSH1 0x44 DUP3 ADD MSTORE PUSH1 0x64 SWAP1 REVERT JUMPDEST CALLVALUE PUSH2 0x188 JUMPI PUSH1 0x0 CALLDATASIZE PUSH1 0x3 NOT ADD SLT PUSH2 0x188 JUMPI PUSH1 0x3 SLOAD PUSH1 0x40 MLOAD PUSH1 0x1 PUSH1 0x1 PUSH1 0xA0 SHL SUB SWAP1 SWAP2 AND DUP2 MSTORE PUSH1 0x20 SWAP1 RETURN JUMPDEST CALLVALUE PUSH2 0x188 JUMPI PUSH1 0x0 CALLDATASIZE PUSH1 0x3 NOT ADD SLT PUSH2 0x188 JUMPI PUSH1 0x20 PUSH2 0x36A ADDRESS ADDRESS PUSH2 0x1913 JUMP JUMPDEST PUSH1 0x40 MLOAD SWAP1 DUP2 MSTORE RETURN JUMPDEST PUSH1 0x0 CALLDATASIZE PUSH1 0x3 NOT ADD SLT PUSH2 0x188 JUMPI PUSH2 0x186 PUSH2 0x389 PUSH2 0x1982 JUMP JUMPDEST PUSH2 0x3E3 PUSH1 0x20 PUSH2 0x3AB PUSH1 0x1 PUSH1 0x1 PUSH1 0xA0 SHL SUB PUSH2 0x3A2 DUP6 PUSH2 0x14EB JUMP JUMPDEST MLOAD MLOAD AND SWAP4 PUSH2 0x14EB JUMP JUMPDEST MLOAD ADD MLOAD PUSH1 0x40 MLOAD PUSH4 0xE8599307 PUSH1 0xE0 SHL PUSH1 0x20 DUP3 ADD MSTORE CALLER PUSH1 0x24 DUP3 ADD MSTORE PUSH1 0x1 PUSH1 0x1 PUSH1 0xA0 SHL SUB SWAP1 SWAP4 AND PUSH1 0x44 DUP5 ADD MSTORE PUSH1 0x64 DUP4 ADD MSTORE DUP2 PUSH1 0x84 DUP2 ADD PUSH2 0x2A7 JUMP JUMPDEST PUSH1 0x2 SLOAD ADDRESS SWAP1 PUSH1 0x1 PUSH1 0x1 PUSH1 0xA0 SHL SUB AND PUSH2 0x18AE JUMP JUMPDEST CALLVALUE PUSH2 0x188 JUMPI PUSH1 0x20 CALLDATASIZE PUSH1 0x3 NOT ADD SLT PUSH2 0x188 JUMPI PUSH1 0x4 CALLDATALOAD PUSH2 0x41B PUSH2 0x415 PUSH2 0x1734 JUMP JUMPDEST ISZERO PUSH2 0x13BE JUMP JUMPDEST PUSH1 0x40 MLOAD PUSH4 0x2CBBBFE1 PUSH1 0xE1 SHL DUP2 MSTORE PUSH1 0x4 DUP2 ADD DUP3 SWAP1 MSTORE PUSH1 0x1 PUSH1 0x24 DUP3 ADD MSTORE PUSH1 0x20 DUP2 PUSH1 0x44 DUP2 PUSH1 0x0 PUSH1 0xD0 GAS CALL SWAP1 DUP2 ISZERO PUSH2 0x4CA JUMPI PUSH1 0x0 SWAP2 PUSH2 0x49B JUMPI JUMPDEST POP ISZERO PUSH2 0x468 JUMPI PUSH2 0x463 SWAP1 PUSH1 0x0 SLOAD PUSH2 0x15E5 JUMP JUMPDEST PUSH1 0x0 SSTORE STOP JUMPDEST PUSH1 0x40 MLOAD PUSH3 0x461BCD PUSH1 0xE5 SHL DUP2 MSTORE PUSH1 0x20 PUSH1 0x4 DUP3 ADD MSTORE PUSH1 0xB PUSH1 0x24 DUP3 ADD MSTORE PUSH11 0x135A5B9D0819985A5B1959 PUSH1 0xAA SHL PUSH1 0x44 DUP3 ADD MSTORE PUSH1 0x64 SWAP1 REVERT JUMPDEST PUSH2 0x4BD SWAP2 POP PUSH1 0x20 RETURNDATASIZE PUSH1 0x20 GT PUSH2 0x4C3 JUMPI JUMPDEST PUSH2 0x4B5 DUP2 DUP4 PUSH2 0x1231 JUMP JUMPDEST DUP2 ADD SWAP1 PUSH2 0x15F2 JUMP JUMPDEST DUP3 PUSH2 0x451 JUMP JUMPDEST POP RETURNDATASIZE PUSH2 0x4AB JUMP JUMPDEST PUSH1 0x40 MLOAD RETURNDATASIZE PUSH1 0x0 DUP3 RETURNDATACOPY RETURNDATASIZE SWAP1 REVERT JUMPDEST PUSH2 0x4DF CALLDATASIZE PUSH2 0x12F0 JUMP JUMPDEST SWAP1 SWAP2 ISZERO PUSH2 0x604 JUMPI PUSH2 0x4FA DUP2 PUSH1 0x20 DUP1 DUP1 SWAP5 MLOAD DUP4 ADD ADD SWAP2 ADD PUSH2 0x139D JUMP JUMPDEST SWAP2 SWAP1 SWAP3 DUP2 DUP2 MLOAD DUP2 DUP4 ADD SWAP4 DUP5 SWAP2 PUSH1 0x0 SWAP5 ADD ADD SUB SLT PUSH2 0x601 JUMPI POP MLOAD DUP1 ISZERO PUSH2 0x5BC JUMPI PUSH2 0x578 PUSH2 0x186 SWAP4 PUSH2 0x528 PUSH2 0x149C JUMP JUMPDEST PUSH1 0x40 MLOAD SWAP5 PUSH2 0x535 DUP7 PUSH2 0x1215 JUMP JUMPDEST PUSH1 0x1 PUSH1 0x1 PUSH1 0xA0 SHL SUB AND DUP1 DUP7 MSTORE PUSH1 0x20 DUP7 ADD DUP6 SWAP1 MSTORE SWAP5 PUSH2 0x552 DUP3 PUSH2 0x14EB JUMP JUMPDEST MSTORE PUSH2 0x55C DUP2 PUSH2 0x14EB JUMP JUMPDEST POP PUSH2 0x565 PUSH2 0x150E JUMP JUMPDEST SWAP2 ADDRESS SWAP1 DUP2 SWAP1 PUSH1 0x1 PUSH1 0x1 PUSH1 0xA0 SHL SUB AND PUSH2 0x1831 JUMP JUMPDEST PUSH1 0x1 DUP1 PUSH1 0xA0 SHL SUB PUSH1 0x3 SLOAD AND SWAP1 PUSH1 0x40 MLOAD SWAP3 PUSH4 0x60097207 PUSH1 0xE1 SHL PUSH1 0x20 DUP6 ADD MSTORE PUSH1 0x24 DUP5 ADD MSTORE PUSH1 0x44 DUP4 ADD MSTORE PUSH1 0x0 PUSH1 0x64 DUP4 ADD MSTORE PUSH1 0x64 DUP3 MSTORE PUSH2 0x5B5 PUSH1 0x84 DUP4 PUSH2 0x1231 JUMP JUMPDEST ADDRESS SWAP1 PUSH2 0x18AE JUMP JUMPDEST PUSH1 0x40 MLOAD PUSH3 0x461BCD PUSH1 0xE5 SHL DUP2 MSTORE PUSH1 0x20 PUSH1 0x4 DUP3 ADD MSTORE PUSH1 0x18 PUSH1 0x24 DUP3 ADD MSTORE PUSH32 0x4E6F20636F6C6C61746572616C20746F2072656C656173650000000000000000 PUSH1 0x44 DUP3 ADD MSTORE PUSH1 0x64 SWAP1 REVERT JUMPDEST DUP1 REVERT JUMPDEST PUSH1 0x40 MLOAD PUSH3 0x461BCD PUSH1 0xE5 SHL DUP2 MSTORE PUSH1 0x20 PUSH1 0x4 DUP3 ADD MSTORE PUSH1 0x1D PUSH1 0x24 DUP3 ADD MSTORE PUSH32 0x4661696C656420746F20726574726965766520636F6C6C61746572616C000000 PUSH1 0x44 DUP3 ADD MSTORE PUSH1 0x64 SWAP1 REVERT JUMPDEST CALLVALUE PUSH2 0x188 JUMPI PUSH1 0x20 CALLDATASIZE PUSH1 0x3 NOT ADD SLT PUSH2 0x188 JUMPI PUSH1 0x4 CALLDATALOAD PUSH8 0xFFFFFFFFFFFFFFFF DUP2 GT PUSH2 0x188 JUMPI CALLDATASIZE PUSH1 0x23 DUP3 ADD SLT ISZERO PUSH2 0x188 JUMPI PUSH2 0x68B SWAP1 CALLDATASIZE SWAP1 PUSH1 0x24 DUP2 PUSH1 0x4 ADD CALLDATALOAD SWAP2 ADD PUSH2 0x126F JUMP JUMPDEST PUSH2 0x696 PUSH2 0x415 PUSH2 0x1734 JUMP JUMPDEST DUP1 MLOAD PUSH8 0xFFFFFFFFFFFFFFFF DUP2 GT PUSH2 0x7D0 JUMPI PUSH2 0x6B2 PUSH1 0x1 SLOAD PUSH2 0x15AB JUMP JUMPDEST PUSH1 0x1F DUP2 GT PUSH2 0x763 JUMPI JUMPDEST POP PUSH1 0x20 SWAP2 PUSH1 0x1F DUP3 GT PUSH1 0x1 EQ PUSH2 0x6F7 JUMPI SWAP2 DUP2 SWAP3 PUSH1 0x0 SWAP3 PUSH2 0x6EC JUMPI JUMPDEST POP POP PUSH1 0x0 NOT PUSH1 0x3 DUP4 SWAP1 SHL SHR NOT AND PUSH1 0x1 SWAP2 DUP3 SHL OR SWAP1 SSTORE STOP JUMPDEST ADD MLOAD SWAP1 POP DUP3 DUP1 PUSH2 0x6D5 JUMP JUMPDEST PUSH1 0x1F NOT DUP3 AND SWAP3 PUSH1 0x1 PUSH1 0x0 MSTORE PUSH1 0x0 DUP1 MLOAD PUSH1 0x20 PUSH2 0x1A6D DUP4 CODECOPY DUP2 MLOAD SWAP2 MSTORE SWAP2 PUSH1 0x0 JUMPDEST DUP6 DUP2 LT PUSH2 0x74B JUMPI POP DUP4 PUSH1 0x1 SWAP6 LT PUSH2 0x732 JUMPI JUMPDEST POP POP POP DUP2 SHL ADD PUSH1 0x1 SSTORE STOP JUMPDEST ADD MLOAD PUSH1 0x0 NOT PUSH1 0xF8 DUP5 PUSH1 0x3 SHL AND SHR NOT AND SWAP1 SSTORE DUP3 DUP1 DUP1 PUSH2 0x727 JUMP JUMPDEST SWAP2 SWAP3 PUSH1 0x20 PUSH1 0x1 DUP2 SWAP3 DUP7 DUP6 ADD MLOAD DUP2 SSTORE ADD SWAP5 ADD SWAP3 ADD PUSH2 0x715 JUMP JUMPDEST PUSH1 0x1 PUSH1 0x0 MSTORE PUSH1 0x1F DUP3 ADD PUSH1 0x5 SHR PUSH1 0x0 DUP1 MLOAD PUSH1 0x20 PUSH2 0x1A6D DUP4 CODECOPY DUP2 MLOAD SWAP2 MSTORE ADD SWAP1 PUSH1 0x20 DUP4 LT PUSH2 0x7BA JUMPI JUMPDEST PUSH1 0x1F ADD PUSH1 0x5 SHR PUSH1 0x0 DUP1 MLOAD PUSH1 0x20 PUSH2 0x1A6D DUP4 CODECOPY DUP2 MLOAD SWAP2 MSTORE ADD SWAP1 JUMPDEST DUP2 DUP2 LT PUSH2 0x7AE JUMPI POP PUSH2 0x6BB JUMP JUMPDEST PUSH1 0x0 DUP2 SSTORE PUSH1 0x1 ADD PUSH2 0x7A1 JUMP JUMPDEST PUSH1 0x0 DUP1 MLOAD PUSH1 0x20 PUSH2 0x1A6D DUP4 CODECOPY DUP2 MLOAD SWAP2 MSTORE SWAP2 POP PUSH2 0x789 JUMP JUMPDEST PUSH4 0x4E487B71 PUSH1 0xE0 SHL PUSH1 0x0 MSTORE PUSH1 0x41 PUSH1 0x4 MSTORE PUSH1 0x24 PUSH1 0x0 REVERT JUMPDEST CALLVALUE PUSH2 0x188 JUMPI PUSH1 0x0 CALLDATASIZE PUSH1 0x3 NOT ADD SLT PUSH2 0x188 JUMPI PUSH1 0x6 SLOAD PUSH1 0x40 MLOAD PUSH1 0x1 PUSH1 0x1 PUSH1 0xA0 SHL SUB SWAP1 SWAP2 AND DUP2 MSTORE PUSH1 0x20 SWAP1 RETURN JUMPDEST CALLVALUE PUSH2 0x188 JUMPI PUSH1 0x0 CALLDATASIZE PUSH1 0x3 NOT ADD SLT PUSH2 0x188 JUMPI PUSH1 0x40 MLOAD PUSH1 0x0 PUSH1 0x1 SLOAD PUSH2 0x831 DUP2 PUSH2 0x15AB JUMP JUMPDEST DUP1 DUP5 MSTORE SWAP1 PUSH1 0x1 DUP2 AND SWAP1 DUP2 ISZERO PUSH2 0x8BF JUMPI POP PUSH1 0x1 EQ PUSH2 0x871 JUMPI JUMPDEST PUSH2 0x86D DUP4 PUSH2 0x859 DUP2 DUP6 SUB DUP3 PUSH2 0x1231 JUMP JUMPDEST PUSH1 0x40 MLOAD SWAP2 DUP3 SWAP2 PUSH1 0x20 DUP4 MSTORE PUSH1 0x20 DUP4 ADD SWAP1 PUSH2 0x1348 JUMP JUMPDEST SUB SWAP1 RETURN JUMPDEST SWAP2 SWAP1 POP PUSH1 0x1 PUSH1 0x0 MSTORE PUSH1 0x0 DUP1 MLOAD PUSH1 0x20 PUSH2 0x1A6D DUP4 CODECOPY DUP2 MLOAD SWAP2 MSTORE SWAP2 PUSH1 0x0 SWAP1 JUMPDEST DUP1 DUP3 LT PUSH2 0x8A5 JUMPI POP SWAP1 SWAP2 POP DUP2 ADD PUSH1 0x20 ADD PUSH2 0x859 PUSH2 0x849 JUMP JUMPDEST SWAP2 SWAP3 PUSH1 0x1 DUP2 PUSH1 0x20 SWAP3 SLOAD DUP4 DUP6 DUP9 ADD ADD MSTORE ADD SWAP2 ADD SWAP1 SWAP3 SWAP2 PUSH2 0x88D JUMP JUMPDEST PUSH1 0xFF NOT AND PUSH1 0x20 DUP1 DUP7 ADD SWAP2 SWAP1 SWAP2 MSTORE SWAP2 ISZERO ISZERO PUSH1 0x5 SHL DUP5 ADD SWAP1 SWAP2 ADD SWAP2 POP PUSH2 0x859 SWAP1 POP PUSH2 0x849 JUMP JUMPDEST CALLVALUE PUSH2 0x188 JUMPI PUSH1 0x20 CALLDATASIZE PUSH1 0x3 NOT ADD SLT PUSH2 0x188 JUMPI PUSH1 0x20 PUSH2 0x36A PUSH2 0x901 PUSH2 0x12C4 JUMP JUMPDEST ADDRESS SWAP1 PUSH2 0x1913 JUMP JUMPDEST CALLVALUE PUSH2 0x188 JUMPI PUSH1 0x0 CALLDATASIZE PUSH1 0x3 NOT ADD SLT PUSH2 0x188 JUMPI PUSH1 0x4 SLOAD PUSH1 0x40 MLOAD PUSH1 0x1 PUSH1 0x1 PUSH1 0xA0 SHL SUB SWAP1 SWAP2 AND DUP2 MSTORE PUSH1 0x20 SWAP1 RETURN JUMPDEST CALLVALUE PUSH2 0x188 JUMPI PUSH1 0x20 CALLDATASIZE PUSH1 0x3 NOT ADD SLT PUSH2 0x188 JUMPI PUSH1 0x4 CALLDATALOAD PUSH2 0x950 PUSH2 0x415 PUSH2 0x1734 JUMP JUMPDEST DUP1 PUSH1 0x0 SLOAD LT PUSH2 0xA0E JUMPI PUSH1 0x40 MLOAD PUSH4 0x2CBBBFE1 PUSH1 0xE1 SHL DUP2 MSTORE DUP2 PUSH1 0x4 DUP3 ADD MSTORE PUSH1 0x0 PUSH1 0x24 DUP3 ADD MSTORE PUSH1 0x20 DUP2 PUSH1 0x44 DUP2 PUSH1 0x0 PUSH1 0xD0 GAS CALL SWAP1 DUP2 ISZERO PUSH2 0x4CA JUMPI PUSH1 0x0 SWAP2 PUSH2 0x9EF JUMPI JUMPDEST POP ISZERO PUSH2 0x9BC JUMPI PUSH1 0x0 SLOAD SWAP1 DUP2 SUB SWAP1 DUP2 GT PUSH2 0x9A6 JUMPI PUSH1 0x0 SSTORE STOP JUMPDEST PUSH4 0x4E487B71 PUSH1 0xE0 SHL PUSH1 0x0 MSTORE PUSH1 0x11 PUSH1 0x4 MSTORE PUSH1 0x24 PUSH1 0x0 REVERT JUMPDEST PUSH1 0x40 MLOAD PUSH3 0x461BCD PUSH1 0xE5 SHL DUP2 MSTORE PUSH1 0x20 PUSH1 0x4 DUP3 ADD MSTORE PUSH1 0xB PUSH1 0x24 DUP3 ADD MSTORE PUSH11 0x109D5C9B8819985A5B1959 PUSH1 0xAA SHL PUSH1 0x44 DUP3 ADD MSTORE PUSH1 0x64 SWAP1 REVERT JUMPDEST PUSH2 0xA08 SWAP2 POP PUSH1 0x20 RETURNDATASIZE PUSH1 0x20 GT PUSH2 0x4C3 JUMPI PUSH2 0x4B5 DUP2 DUP4 PUSH2 0x1231 JUMP JUMPDEST DUP3 PUSH2 0x98E JUMP JUMPDEST PUSH1 0x40 MLOAD PUSH3 0x461BCD PUSH1 0xE5 SHL DUP2 MSTORE PUSH1 0x20 PUSH1 0x4 DUP3 ADD MSTORE PUSH1 0x1E PUSH1 0x24 DUP3 ADD MSTORE PUSH32 0x4275726E206661696C65643A206E6F7420656E6F75676820746F6B656E730000 PUSH1 0x44 DUP3 ADD MSTORE PUSH1 0x64 SWAP1 REVERT JUMPDEST PUSH2 0xA68 PUSH2 0xA5F CALLDATASIZE PUSH2 0x12F0 JUMP JUMPDEST SWAP2 SWAP3 SWAP1 SWAP3 PUSH2 0x1443 JUMP JUMPDEST PUSH1 0x20 DUP2 DUP1 MLOAD DUP2 ADD SUB SLT PUSH2 0x188 JUMPI PUSH1 0x1 PUSH1 0x1 PUSH1 0xA0 SHL SUB SWAP1 PUSH2 0xA8A SWAP1 PUSH1 0x20 ADD PUSH2 0x1389 JUMP JUMPDEST AND SWAP1 PUSH1 0x40 DUP2 DUP1 MLOAD DUP2 ADD SUB SLT PUSH2 0x188 JUMPI PUSH2 0xAAA PUSH1 0x40 PUSH1 0x20 DUP4 ADD MLOAD SWAP3 ADD PUSH2 0x1389 JUMP JUMPDEST SWAP2 DUP2 ISZERO PUSH2 0xB23 JUMPI PUSH1 0x40 MLOAD PUSH4 0x292BDAB3 PUSH1 0xE1 SHL PUSH1 0x20 DUP3 ADD MSTORE PUSH1 0x4 DUP2 MSTORE PUSH2 0x186 SWAP4 SWAP1 SWAP3 PUSH2 0xAD6 PUSH1 0x24 DUP6 PUSH2 0x1231 JUMP JUMPDEST PUSH1 0x40 MLOAD PUSH4 0x7757BEC7 PUSH1 0xE1 SHL PUSH1 0x20 DUP3 ADD MSTORE PUSH1 0x24 DUP2 ADD SWAP4 SWAP1 SWAP4 MSTORE PUSH1 0x44 DUP4 ADD MSTORE PUSH1 0x1 PUSH1 0x1 PUSH1 0xA0 SHL SUB AND PUSH1 0x64 DUP1 DUP4 ADD SWAP2 SWAP1 SWAP2 MSTORE DUP2 MSTORE PUSH2 0xB12 PUSH1 0x84 DUP3 PUSH2 0x1231 JUMP JUMPDEST PUSH1 0x3 SLOAD PUSH1 0x1 PUSH1 0x1 PUSH1 0xA0 SHL SUB AND PUSH2 0x1653 JUMP JUMPDEST PUSH1 0x40 MLOAD PUSH3 0x461BCD PUSH1 0xE5 SHL DUP2 MSTORE PUSH1 0x20 PUSH1 0x4 DUP3 ADD MSTORE PUSH1 0xE PUSH1 0x24 DUP3 ADD MSTORE PUSH14 0x27379030B1BA34BB32903637B0B7 PUSH1 0x91 SHL PUSH1 0x44 DUP3 ADD MSTORE PUSH1 0x64 SWAP1 REVERT JUMPDEST CALLVALUE PUSH2 0x188 JUMPI PUSH1 0x0 CALLDATASIZE PUSH1 0x3 NOT ADD SLT PUSH2 0x188 JUMPI PUSH1 0x20 PUSH1 0x0 SLOAD PUSH1 0x40 MLOAD SWAP1 DUP2 MSTORE RETURN JUMPDEST PUSH1 0x40 CALLDATASIZE PUSH1 0x3 NOT ADD SLT PUSH2 0x188 JUMPI PUSH2 0x186 PUSH1 0x4 CALLDATALOAD PUSH2 0xB91 PUSH2 0x12DA JUMP JUMPDEST PUSH1 0x5 SLOAD PUSH1 0x1 PUSH1 0x1 PUSH1 0xA0 SHL SUB DUP1 DUP4 AND SWAP4 SWAP3 SWAP2 AND SWAP1 DUP4 DUP3 EQ SWAP1 PUSH2 0xBD0 SWAP1 DUP5 SWAP1 PUSH2 0xBC9 SWAP1 DUP5 DUP1 ISZERO PUSH2 0xC61 JUMPI JUMPDEST PUSH2 0xBC3 SWAP1 PUSH2 0x152E JUMP JUMPDEST ADDRESS PUSH2 0x1913 JUMP JUMPDEST LT ISZERO PUSH2 0x156A JUMP JUMPDEST ISZERO PUSH2 0xC5C JUMPI POP PUSH1 0x6 SLOAD PUSH1 0x1 PUSH1 0x1 PUSH1 0xA0 SHL SUB AND JUMPDEST PUSH1 0x40 MLOAD PUSH4 0x41976E09 PUSH1 0xE0 SHL PUSH1 0x20 DUP3 ADD MSTORE PUSH1 0x24 DUP1 DUP3 ADD DUP6 SWAP1 MSTORE DUP2 MSTORE SWAP3 PUSH2 0xC09 PUSH1 0x44 DUP6 PUSH2 0x1231 JUMP JUMPDEST PUSH1 0x40 MLOAD PUSH4 0x46FE5431 PUSH1 0xE0 SHL PUSH1 0x20 DUP3 ADD MSTORE CALLER PUSH1 0x24 DUP3 ADD MSTORE PUSH1 0x44 DUP2 ADD SWAP4 SWAP1 SWAP4 MSTORE PUSH1 0x64 DUP4 ADD MSTORE PUSH1 0x1 PUSH1 0x1 PUSH1 0xA0 SHL SUB AND PUSH1 0x84 DUP1 DUP4 ADD SWAP2 SWAP1 SWAP2 MSTORE DUP2 MSTORE PUSH2 0xC4B PUSH1 0xA4 DUP3 PUSH2 0x1231 JUMP JUMPDEST PUSH1 0x4 SLOAD PUSH1 0x1 PUSH1 0x1 PUSH1 0xA0 SHL SUB AND PUSH2 0x1653 JUMP JUMPDEST PUSH2 0xBE3 JUMP JUMPDEST POP PUSH1 0x6 SLOAD PUSH1 0x1 PUSH1 0x1 PUSH1 0xA0 SHL SUB AND DUP9 EQ PUSH2 0xBBA JUMP JUMPDEST PUSH2 0xC89 PUSH2 0xC81 CALLDATASIZE PUSH2 0x12F0 JUMP JUMPDEST SWAP3 SWAP1 SWAP2 PUSH2 0x1443 JUMP JUMPDEST PUSH1 0x80 DUP3 DUP1 MLOAD DUP2 ADD SUB SLT PUSH2 0x188 JUMPI PUSH2 0xCA2 PUSH1 0x20 DUP4 ADD PUSH2 0x1389 JUMP JUMPDEST SWAP2 PUSH1 0x40 DUP2 ADD MLOAD SWAP3 PUSH1 0x80 PUSH2 0xCB7 PUSH1 0x60 DUP5 ADD PUSH2 0x1389 JUMP JUMPDEST SWAP3 ADD MLOAD DUP4 MLOAD PUSH1 0x1 PUSH1 0x1 PUSH1 0xA0 SHL SUB SWAP1 SWAP3 AND SWAP4 SWAP1 SWAP2 PUSH1 0x20 DUP1 DUP4 ADD SWAP3 SWAP2 DUP3 ADD SWAP2 SWAP1 SWAP2 SUB SLT PUSH2 0x188 JUMPI MLOAD LT PUSH2 0xDDE JUMPI PUSH1 0x40 MLOAD PUSH4 0x6EB7461 PUSH1 0xE5 SHL PUSH1 0x20 DUP3 ADD MSTORE PUSH1 0x1 PUSH1 0x1 PUSH1 0xA0 SHL SUB DUP4 DUP2 AND PUSH1 0x24 DUP4 ADD MSTORE DUP3 AND PUSH1 0x44 DUP3 ADD MSTORE PUSH1 0x64 DUP1 DUP3 ADD DUP6 SWAP1 MSTORE DUP2 MSTORE PUSH2 0x186 SWAP4 SWAP1 SWAP3 PUSH2 0xDA2 SWAP1 PUSH2 0xD28 PUSH1 0x84 DUP7 PUSH2 0x1231 JUMP JUMPDEST PUSH1 0x2 SLOAD PUSH1 0x40 MLOAD PUSH1 0x20 SWAP7 PUSH2 0xD54 SWAP3 SWAP1 SWAP2 SWAP1 PUSH1 0x1 PUSH1 0x1 PUSH1 0xA0 SHL SUB AND PUSH2 0xD4B DUP10 DUP4 PUSH2 0x1231 JUMP JUMPDEST PUSH1 0x0 DUP3 MSTORE PUSH2 0x1653 JUMP JUMPDEST PUSH2 0xD5C PUSH2 0x149C JUMP JUMPDEST PUSH1 0x40 MLOAD SWAP5 PUSH2 0xD69 DUP7 PUSH2 0x1215 JUMP JUMPDEST PUSH1 0x1 PUSH1 0x1 PUSH1 0xA0 SHL SUB AND DUP1 DUP7 MSTORE DUP7 DUP7 ADD DUP6 SWAP1 MSTORE SWAP5 PUSH2 0xD85 DUP3 PUSH2 0x14EB JUMP JUMPDEST MSTORE PUSH2 0xD8F DUP2 PUSH2 0x14EB JUMP JUMPDEST POP PUSH2 0xD98 PUSH2 0x150E JUMP JUMPDEST SWAP2 ADDRESS SWAP1 ADDRESS SWAP1 PUSH2 0x1831 JUMP JUMPDEST PUSH1 0x1 DUP1 PUSH1 0xA0 SHL SUB PUSH1 0x3 SLOAD AND SWAP2 PUSH1 0x40 MLOAD SWAP4 PUSH4 0x60097207 PUSH1 0xE1 SHL SWAP1 DUP6 ADD MSTORE PUSH1 0x24 DUP5 ADD MSTORE PUSH1 0x44 DUP4 ADD MSTORE PUSH1 0x1 PUSH1 0x64 DUP4 ADD MSTORE PUSH1 0x64 DUP3 MSTORE PUSH2 0x5B5 PUSH1 0x84 DUP4 PUSH2 0x1231 JUMP JUMPDEST PUSH1 0x40 MLOAD PUSH3 0x461BCD PUSH1 0xE5 SHL DUP2 MSTORE PUSH1 0x20 PUSH1 0x4 DUP3 ADD MSTORE PUSH1 0x17 PUSH1 0x24 DUP3 ADD MSTORE PUSH32 0x496E73756666696369656E7420636F6C6C61746572616C000000000000000000 PUSH1 0x44 DUP3 ADD MSTORE PUSH1 0x64 SWAP1 REVERT JUMPDEST PUSH2 0xE2C CALLDATASIZE PUSH2 0x12F0 JUMP JUMPDEST SWAP2 ISZERO PUSH2 0xF2E JUMPI PUSH1 0x80 DUP3 DUP1 MLOAD DUP2 ADD SUB SLT PUSH2 0x188 JUMPI PUSH2 0xE4B PUSH1 0x20 DUP4 ADD PUSH2 0x1389 JUMP JUMPDEST SWAP1 PUSH1 0x40 DUP4 ADD MLOAD SWAP2 PUSH2 0xE6A PUSH1 0x80 PUSH2 0xE63 PUSH1 0x60 DUP8 ADD PUSH2 0x1389 JUMP JUMPDEST SWAP6 ADD PUSH2 0x1389 JUMP JUMPDEST DUP3 MLOAD PUSH1 0x1 PUSH1 0x1 PUSH1 0xA0 SHL SUB SWAP1 SWAP3 AND SWAP3 SWAP1 SWAP2 PUSH1 0x20 DUP1 DUP4 ADD SWAP3 SWAP2 DUP3 ADD SWAP2 SWAP1 SWAP2 SUB SLT PUSH2 0x188 JUMPI PUSH2 0xE97 SWAP1 MLOAD DUP5 PUSH2 0x1430 JUMP JUMPDEST PUSH1 0x78 DUP2 MUL SWAP1 DUP1 DUP3 DIV PUSH1 0x78 EQ SWAP1 ISZERO OR ISZERO PUSH2 0x9A6 JUMPI PUSH1 0x40 MLOAD PUSH4 0xC35082A9 PUSH1 0xE0 SHL PUSH1 0x20 DUP3 ADD MSTORE PUSH1 0x1 PUSH1 0x1 PUSH1 0xA0 SHL SUB DUP5 DUP2 AND PUSH1 0x24 DUP4 ADD MSTORE SWAP3 SWAP1 SWAP3 AND PUSH1 0x44 DUP1 DUP5 ADD SWAP2 SWAP1 SWAP2 MSTORE DUP3 MSTORE PUSH2 0x186 SWAP5 SWAP2 SWAP4 PUSH1 0x64 SWAP3 SWAP1 PUSH2 0xEED DUP5 DUP8 PUSH2 0x1231 JUMP JUMPDEST PUSH1 0x40 MLOAD PUSH4 0x23B0D1F7 PUSH1 0xE1 SHL PUSH1 0x20 DUP3 ADD MSTORE PUSH1 0x24 DUP2 ADD SWAP6 SWAP1 SWAP6 MSTORE PUSH1 0x44 DUP6 ADD MSTORE PUSH1 0x1 PUSH1 0x1 PUSH1 0xA0 SHL SUB AND DUP3 DUP5 ADD MSTORE DIV PUSH1 0x84 DUP1 DUP4 ADD SWAP2 SWAP1 SWAP2 MSTORE DUP2 MSTORE PUSH2 0x175 PUSH1 0xA4 DUP3 PUSH2 0x1231 JUMP JUMPDEST PUSH1 0x40 MLOAD PUSH3 0x461BCD PUSH1 0xE5 SHL DUP2 MSTORE PUSH1 0x20 PUSH1 0x4 DUP3 ADD MSTORE PUSH1 0x12 PUSH1 0x24 DUP3 ADD MSTORE PUSH18 0x13DC9858DB194818D85B1B0819985A5B1959 PUSH1 0x72 SHL PUSH1 0x44 DUP3 ADD MSTORE PUSH1 0x64 SWAP1 REVERT JUMPDEST CALLVALUE PUSH2 0x188 JUMPI PUSH1 0x60 CALLDATASIZE PUSH1 0x3 NOT ADD SLT PUSH2 0x188 JUMPI PUSH2 0xF81 PUSH2 0x12C4 JUMP JUMPDEST PUSH2 0x1043 PUSH2 0xF8C PUSH2 0x12DA JUMP JUMPDEST SWAP2 PUSH2 0xF98 PUSH2 0x415 PUSH2 0x1734 JUMP JUMPDEST PUSH2 0xFA0 PUSH2 0x149C JUMP JUMPDEST SWAP3 PUSH1 0x40 MLOAD SWAP1 PUSH2 0xFAE DUP3 PUSH2 0x1215 JUMP JUMPDEST PUSH1 0x1 PUSH1 0x1 PUSH1 0xA0 SHL SUB AND DUP2 MSTORE PUSH1 0x44 CALLDATALOAD PUSH1 0x20 DUP3 ADD MSTORE PUSH2 0xFCA DUP5 PUSH2 0x14EB JUMP JUMPDEST MSTORE PUSH2 0xFD4 DUP4 PUSH2 0x14EB JUMP JUMPDEST POP PUSH1 0x20 SWAP3 DUP4 SWAP2 PUSH2 0x1055 PUSH1 0x40 MLOAD PUSH2 0xFEA DUP6 DUP3 PUSH2 0x1231 JUMP JUMPDEST PUSH1 0x0 DUP2 MSTORE PUSH1 0x40 MLOAD SWAP6 DUP7 SWAP5 DUP6 SWAP5 PUSH4 0xF6975653 PUSH1 0xE0 SHL DUP7 MSTORE PUSH1 0x0 PUSH1 0x4 DUP8 ADD MSTORE PUSH1 0x0 PUSH1 0x24 DUP8 ADD MSTORE PUSH1 0x1 DUP1 PUSH1 0xA0 SHL SUB AND PUSH1 0x44 DUP7 ADD MSTORE PUSH1 0x0 PUSH1 0x64 DUP7 ADD MSTORE PUSH1 0x0 PUSH1 0x84 DUP7 ADD MSTORE PUSH1 0x0 PUSH1 0xA4 DUP7 ADD MSTORE PUSH2 0x100 PUSH1 0xC4 DUP7 ADD MSTORE PUSH2 0x104 DUP6 ADD SWAP1 PUSH2 0x160A JUMP JUMPDEST DUP4 DUP2 SUB PUSH1 0x3 NOT ADD PUSH1 0xE4 DUP6 ADD MSTORE SWAP1 PUSH2 0x1348 JUMP JUMPDEST SUB DUP2 PUSH1 0x0 PUSH1 0xFD GAS CALL DUP1 ISZERO PUSH2 0x4CA JUMPI PUSH2 0x1069 JUMPI STOP JUMPDEST DUP2 PUSH2 0x186 SWAP3 SWAP1 RETURNDATASIZE LT PUSH2 0x4C3 JUMPI PUSH2 0x4B5 DUP2 DUP4 PUSH2 0x1231 JUMP JUMPDEST CALLVALUE PUSH2 0x188 JUMPI PUSH1 0x0 CALLDATASIZE PUSH1 0x3 NOT ADD SLT PUSH2 0x188 JUMPI PUSH1 0x5 SLOAD PUSH1 0x40 MLOAD PUSH1 0x1 PUSH1 0x1 PUSH1 0xA0 SHL SUB SWAP1 SWAP2 AND DUP2 MSTORE PUSH1 0x20 SWAP1 RETURN JUMPDEST CALLVALUE PUSH2 0x188 JUMPI PUSH1 0x0 CALLDATASIZE PUSH1 0x3 NOT ADD SLT PUSH2 0x188 JUMPI PUSH1 0x2 SLOAD PUSH1 0x40 MLOAD PUSH1 0x1 PUSH1 0x1 PUSH1 0xA0 SHL SUB SWAP1 SWAP2 AND DUP2 MSTORE PUSH1 0x20 SWAP1 RETURN JUMPDEST PUSH1 0x40 CALLDATASIZE PUSH1 0x3 NOT ADD SLT PUSH2 0x188 JUMPI PUSH1 0x4 CALLDATALOAD DUP1 ISZERO SWAP1 DUP2 ISZERO SUB PUSH2 0x188 JUMPI PUSH1 0x24 CALLDATALOAD PUSH8 0xFFFFFFFFFFFFFFFF DUP2 GT PUSH2 0x188 JUMPI PUSH2 0x110A SWAP1 CALLDATASIZE SWAP1 PUSH1 0x4 ADD PUSH2 0x12A6 JUMP JUMPDEST SWAP1 PUSH2 0x11C0 JUMPI PUSH2 0x1125 DUP2 PUSH1 0x20 DUP1 PUSH2 0x186 SWAP5 MLOAD DUP4 ADD ADD SWAP2 ADD PUSH2 0x139D JUMP JUMPDEST PUSH1 0x5 SLOAD PUSH1 0x1 PUSH1 0x1 PUSH1 0xA0 SHL SUB SWAP3 DUP4 AND SWAP3 SWAP1 DUP2 AND SWAP2 AND DUP2 SUB PUSH2 0x11BB JUMPI POP PUSH1 0x6 SLOAD PUSH1 0x1 PUSH1 0x1 PUSH1 0xA0 SHL SUB AND JUMPDEST PUSH1 0x40 MLOAD PUSH4 0xC35082A9 PUSH1 0xE0 SHL PUSH1 0x20 DUP3 ADD MSTORE PUSH1 0x1 PUSH1 0x1 PUSH1 0xA0 SHL SUB DUP4 DUP2 AND PUSH1 0x24 DUP4 ADD MSTORE DUP3 AND PUSH1 0x44 DUP1 DUP4 ADD SWAP2 SWAP1 SWAP2 MSTORE DUP2 MSTORE SWAP2 PUSH2 0x175 SWAP1 PUSH2 0x118A PUSH1 0x64 DUP6 PUSH2 0x1231 JUMP JUMPDEST PUSH1 0x40 MLOAD PUSH4 0xC59E1C8F PUSH1 0xE0 SHL PUSH1 0x20 DUP3 ADD MSTORE PUSH1 0x1 PUSH1 0x1 PUSH1 0xA0 SHL SUB SWAP2 DUP3 AND PUSH1 0x24 DUP3 ADD MSTORE SWAP3 AND PUSH1 0x44 DUP4 ADD MSTORE DUP2 PUSH1 0x64 DUP2 ADD PUSH2 0x2A7 JUMP JUMPDEST PUSH2 0x114D JUMP JUMPDEST PUSH1 0x40 MLOAD PUSH3 0x461BCD PUSH1 0xE5 SHL DUP2 MSTORE PUSH1 0x20 PUSH1 0x4 DUP3 ADD MSTORE PUSH1 0x14 PUSH1 0x24 DUP3 ADD MSTORE PUSH20 0x131BD85B8818DB19585C9A5B99C819985A5B1959 PUSH1 0x62 SHL PUSH1 0x44 DUP3 ADD MSTORE PUSH1 0x64 SWAP1 REVERT JUMPDEST CALLVALUE PUSH2 0x188 JUMPI PUSH1 0x0 CALLDATASIZE PUSH1 0x3 NOT ADD SLT PUSH2 0x188 JUMPI PUSH1 0x20 SWAP1 ADDRESS DUP2 MSTORE RETURN JUMPDEST PUSH1 0x40 DUP2 ADD SWAP1 DUP2 LT PUSH8 0xFFFFFFFFFFFFFFFF DUP3 GT OR PUSH2 0x7D0 JUMPI PUSH1 0x40 MSTORE JUMP JUMPDEST SWAP1 PUSH1 0x1F DUP1 NOT SWAP2 ADD AND DUP2 ADD SWAP1 DUP2 LT PUSH8 0xFFFFFFFFFFFFFFFF DUP3 GT OR PUSH2 0x7D0 JUMPI PUSH1 0x40 MSTORE JUMP JUMPDEST PUSH8 0xFFFFFFFFFFFFFFFF DUP2 GT PUSH2 0x7D0 JUMPI PUSH1 0x1F ADD PUSH1 0x1F NOT AND PUSH1 0x20 ADD SWAP1 JUMP JUMPDEST SWAP3 SWAP2 SWAP3 PUSH2 0x127B DUP3 PUSH2 0x1253 JUMP JUMPDEST SWAP2 PUSH2 0x1289 PUSH1 0x40 MLOAD SWAP4 DUP5 PUSH2 0x1231 JUMP JUMPDEST DUP3 SWAP5 DUP2 DUP5 MSTORE DUP2 DUP4 ADD GT PUSH2 0x188 JUMPI DUP3 DUP2 PUSH1 0x20 SWAP4 DUP5 PUSH1 0x0 SWAP7 ADD CALLDATACOPY ADD ADD MSTORE JUMP JUMPDEST SWAP1 DUP1 PUSH1 0x1F DUP4 ADD SLT ISZERO PUSH2 0x188 JUMPI DUP2 PUSH1 0x20 PUSH2 0x12C1 SWAP4 CALLDATALOAD SWAP2 ADD PUSH2 0x126F JUMP JUMPDEST SWAP1 JUMP JUMPDEST PUSH1 0x4 CALLDATALOAD SWAP1 PUSH1 0x1 PUSH1 0x1 PUSH1 0xA0 SHL SUB DUP3 AND DUP3 SUB PUSH2 0x188 JUMPI JUMP JUMPDEST PUSH1 0x24 CALLDATALOAD SWAP1 PUSH1 0x1 PUSH1 0x1 PUSH1 0xA0 SHL SUB DUP3 AND DUP3 SUB PUSH2 0x188 JUMPI JUMP JUMPDEST PUSH1 0x60 PUSH1 0x3 NOT DUP3 ADD SLT PUSH2 0x188 JUMPI PUSH1 0x4 CALLDATALOAD DUP1 ISZERO ISZERO DUP2 SUB PUSH2 0x188 JUMPI SWAP2 PUSH1 0x24 CALLDATALOAD PUSH8 0xFFFFFFFFFFFFFFFF DUP2 GT PUSH2 0x188 JUMPI DUP3 PUSH2 0x1328 SWAP2 PUSH1 0x4 ADD PUSH2 0x12A6 JUMP JUMPDEST SWAP2 PUSH1 0x44 CALLDATALOAD SWAP1 PUSH8 0xFFFFFFFFFFFFFFFF DUP3 GT PUSH2 0x188 JUMPI PUSH2 0x12C1 SWAP2 PUSH1 0x4 ADD PUSH2 0x12A6 JUMP JUMPDEST SWAP2 SWAP1 DUP3 MLOAD SWAP3 DUP4 DUP3 MSTORE PUSH1 0x0 JUMPDEST DUP5 DUP2 LT PUSH2 0x1374 JUMPI POP POP DUP3 PUSH1 0x0 PUSH1 0x20 DUP1 SWAP5 SWAP6 DUP5 ADD ADD MSTORE PUSH1 0x1F DUP1 NOT SWAP2 ADD AND ADD ADD SWAP1 JUMP JUMPDEST DUP1 PUSH1 0x20 DUP1 SWAP3 DUP5 ADD ADD MLOAD DUP3 DUP3 DUP7 ADD ADD MSTORE ADD PUSH2 0x1353 JUMP JUMPDEST MLOAD SWAP1 PUSH1 0x1 PUSH1 0x1 PUSH1 0xA0 SHL SUB DUP3 AND DUP3 SUB PUSH2 0x188 JUMPI JUMP JUMPDEST SWAP2 SWAP1 DUP3 PUSH1 0x40 SWAP2 SUB SLT PUSH2 0x188 JUMPI PUSH2 0x12C1 PUSH1 0x20 PUSH2 0x13B7 DUP5 PUSH2 0x1389 JUMP JUMPDEST SWAP4 ADD PUSH2 0x1389 JUMP JUMPDEST ISZERO PUSH2 0x13C5 JUMPI JUMP JUMPDEST PUSH1 0x40 MLOAD PUSH3 0x461BCD PUSH1 0xE5 SHL DUP2 MSTORE PUSH1 0x20 PUSH1 0x4 DUP3 ADD MSTORE PUSH1 0x3A PUSH1 0x24 DUP3 ADD MSTORE PUSH32 0x547279696E6720746F2063616C6C2065787465726E616C2066756E6374696F6E PUSH1 0x44 DUP3 ADD MSTORE PUSH32 0x207769746820696E7465726E616C207472616E73616374696F6E000000000000 PUSH1 0x64 DUP3 ADD MSTORE PUSH1 0x84 SWAP1 REVERT JUMPDEST DUP2 DUP2 MUL SWAP3 SWAP2 DUP2 ISZERO SWAP2 DUP5 DIV EQ OR ISZERO PUSH2 0x9A6 JUMPI JUMP JUMPDEST ISZERO PUSH2 0x144A JUMPI JUMP JUMPDEST PUSH1 0x40 MLOAD PUSH3 0x461BCD PUSH1 0xE5 SHL DUP2 MSTORE PUSH1 0x20 PUSH1 0x4 DUP3 ADD MSTORE PUSH1 0x12 PUSH1 0x24 DUP3 ADD MSTORE PUSH18 0x13195919D95C8818D85B1B0819985A5B1959 PUSH1 0x72 SHL PUSH1 0x44 DUP3 ADD MSTORE PUSH1 0x64 SWAP1 REVERT JUMPDEST PUSH8 0xFFFFFFFFFFFFFFFF DUP2 GT PUSH2 0x7D0 JUMPI PUSH1 0x5 SHL PUSH1 0x20 ADD SWAP1 JUMP JUMPDEST PUSH1 0x40 DUP1 MLOAD SWAP1 SWAP2 SWAP1 PUSH2 0x14AD DUP4 DUP3 PUSH2 0x1231 JUMP JUMPDEST PUSH1 0x1 DUP2 MSTORE SWAP2 PUSH1 0x1F NOT ADD DUP3 PUSH1 0x0 JUMPDEST DUP3 DUP2 LT PUSH2 0x14C6 JUMPI POP POP POP JUMP JUMPDEST PUSH1 0x20 SWAP1 PUSH1 0x40 MLOAD PUSH2 0x14D5 DUP2 PUSH2 0x1215 JUMP JUMPDEST PUSH1 0x0 DUP2 MSTORE PUSH1 0x0 DUP4 DUP3 ADD MSTORE DUP3 DUP3 DUP6 ADD ADD MSTORE ADD PUSH2 0x14BA JUMP JUMPDEST DUP1 MLOAD ISZERO PUSH2 0x14F8 JUMPI PUSH1 0x20 ADD SWAP1 JUMP JUMPDEST PUSH4 0x4E487B71 PUSH1 0xE0 SHL PUSH1 0x0 MSTORE PUSH1 0x32 PUSH1 0x4 MSTORE PUSH1 0x24 PUSH1 0x0 REVERT JUMPDEST PUSH1 0x40 MLOAD SWAP1 PUSH2 0x151D PUSH1 0x40 DUP4 PUSH2 0x1231 JUMP JUMPDEST PUSH1 0x2 DUP3 MSTORE PUSH2 0x60F PUSH1 0xF3 SHL PUSH1 0x20 DUP4 ADD MSTORE JUMP JUMPDEST ISZERO PUSH2 0x1535 JUMPI JUMP JUMPDEST PUSH1 0x40 MLOAD PUSH3 0x461BCD PUSH1 0xE5 SHL DUP2 MSTORE PUSH1 0x20 PUSH1 0x4 DUP3 ADD MSTORE PUSH1 0xD PUSH1 0x24 DUP3 ADD MSTORE PUSH13 0x24B73B30B634B2103A37B5B2B7 PUSH1 0x99 SHL PUSH1 0x44 DUP3 ADD MSTORE PUSH1 0x64 SWAP1 REVERT JUMPDEST ISZERO PUSH2 0x1571 JUMPI JUMP JUMPDEST PUSH1 0x40 MLOAD PUSH3 0x461BCD PUSH1 0xE5 SHL DUP2 MSTORE PUSH1 0x20 PUSH1 0x4 DUP3 ADD MSTORE PUSH1 0x12 PUSH1 0x24 DUP3 ADD MSTORE PUSH18 0x496E73756666696369656E742066756E6473 PUSH1 0x70 SHL PUSH1 0x44 DUP3 ADD MSTORE PUSH1 0x64 SWAP1 REVERT JUMPDEST SWAP1 PUSH1 0x1 DUP3 DUP2 SHR SWAP3 AND DUP1 ISZERO PUSH2 0x15DB JUMPI JUMPDEST PUSH1 0x20 DUP4 LT EQ PUSH2 0x15C5 JUMPI JUMP JUMPDEST PUSH4 0x4E487B71 PUSH1 0xE0 SHL PUSH1 0x0 MSTORE PUSH1 0x22 PUSH1 0x4 MSTORE PUSH1 0x24 PUSH1 0x0 REVERT JUMPDEST SWAP2 PUSH1 0x7F AND SWAP2 PUSH2 0x15BA JUMP JUMPDEST SWAP2 SWAP1 DUP3 ADD DUP1 SWAP3 GT PUSH2 0x9A6 JUMPI JUMP JUMPDEST SWAP1 DUP2 PUSH1 0x20 SWAP2 SUB SLT PUSH2 0x188 JUMPI MLOAD DUP1 ISZERO ISZERO DUP2 SUB PUSH2 0x188 JUMPI SWAP1 JUMP JUMPDEST SWAP1 PUSH1 0x20 DUP1 DUP4 MLOAD SWAP3 DUP4 DUP2 MSTORE ADD SWAP3 ADD SWAP1 PUSH1 0x0 JUMPDEST DUP2 DUP2 LT PUSH2 0x1628 JUMPI POP POP POP SWAP1 JUMP JUMPDEST DUP3 MLOAD DUP1 MLOAD PUSH1 0x1 PUSH1 0x1 PUSH1 0xA0 SHL SUB AND DUP6 MSTORE PUSH1 0x20 SWAP1 DUP2 ADD MLOAD DUP2 DUP7 ADD MSTORE PUSH1 0x40 SWAP1 SWAP5 ADD SWAP4 SWAP1 SWAP3 ADD SWAP2 PUSH1 0x1 ADD PUSH2 0x161B JUMP JUMPDEST PUSH1 0x40 MLOAD PUSH4 0x100897A5 PUSH1 0xE2 SHL DUP2 MSTORE PUSH1 0x1 PUSH1 0x1 PUSH1 0xA0 SHL SUB SWAP1 SWAP2 AND PUSH1 0x4 DUP3 ADD MSTORE PUSH1 0xA0 PUSH1 0x24 DUP3 ADD MSTORE PUSH1 0x60 MLOAD PUSH1 0xA4 DUP3 ADD DUP2 SWAP1 MSTORE SWAP1 SWAP3 SWAP2 DUP4 SWAP2 PUSH1 0xC4 DUP4 ADD SWAP2 SWAP1 PUSH1 0x80 SWAP1 PUSH1 0x0 JUMPDEST DUP2 DUP2 LT PUSH2 0x1706 JUMPI POP POP PUSH3 0x989680 PUSH1 0x44 DUP6 ADD MSTORE POP DUP3 DUP3 SUB PUSH1 0x3 NOT ADD PUSH1 0x64 DUP5 ADD MSTORE PUSH1 0x20 SWAP4 DUP4 SWAP3 PUSH2 0x16D6 SWAP3 PUSH2 0x16C4 SWAP2 SWAP1 PUSH2 0x1348 JUMP JUMPDEST DUP4 DUP2 SUB PUSH1 0x3 NOT ADD PUSH1 0x84 DUP6 ADD MSTORE SWAP1 PUSH2 0x1348 JUMP JUMPDEST SUB DUP2 PUSH1 0x0 PUSH1 0xD8 GAS CALL DUP1 ISZERO PUSH2 0x4CA JUMPI PUSH2 0x16EB JUMPI POP JUMP JUMPDEST PUSH2 0x1703 SWAP1 PUSH1 0x20 RETURNDATASIZE PUSH1 0x20 GT PUSH2 0x4C3 JUMPI PUSH2 0x4B5 DUP2 DUP4 PUSH2 0x1231 JUMP JUMPDEST POP JUMP JUMPDEST DUP3 MLOAD DUP1 MLOAD PUSH1 0x1 PUSH1 0x1 PUSH1 0xA0 SHL SUB AND DUP7 MSTORE PUSH1 0x20 SWAP1 DUP2 ADD MLOAD DUP2 DUP8 ADD MSTORE DUP9 SWAP7 POP PUSH1 0x40 SWAP1 SWAP6 ADD SWAP5 SWAP1 SWAP3 ADD SWAP2 PUSH1 0x1 ADD PUSH2 0x1692 JUMP JUMPDEST PUSH1 0x0 DUP1 PUSH1 0x60 MLOAD PUSH1 0x80 PUSH1 0xFF GAS STATICCALL RETURNDATASIZE ISZERO PUSH2 0x1829 JUMPI RETURNDATASIZE SWAP1 PUSH2 0x1751 DUP3 PUSH2 0x1253 JUMP JUMPDEST SWAP2 PUSH2 0x175F PUSH1 0x40 MLOAD SWAP4 DUP5 PUSH2 0x1231 JUMP JUMPDEST DUP3 MSTORE RETURNDATASIZE PUSH1 0x0 PUSH1 0x20 DUP5 ADD RETURNDATACOPY JUMPDEST ISZERO PUSH2 0x17E5 JUMPI DUP1 MLOAD ISZERO PUSH2 0x1789 JUMPI DUP1 PUSH1 0x20 DUP1 PUSH2 0x12C1 SWAP4 MLOAD DUP4 ADD ADD SWAP2 ADD PUSH2 0x15F2 JUMP JUMPDEST PUSH1 0x40 MLOAD PUSH3 0x461BCD PUSH1 0xE5 SHL DUP2 MSTORE PUSH1 0x20 PUSH1 0x4 DUP3 ADD MSTORE PUSH1 0x2E PUSH1 0x24 DUP3 ADD MSTORE PUSH32 0x2749535F494E5445524E414C5F5452414E53414354494F4E272072657475726E PUSH1 0x44 DUP3 ADD MSTORE PUSH14 0x7320696E76616C69642064617461 PUSH1 0x90 SHL PUSH1 0x64 DUP3 ADD MSTORE PUSH1 0x84 SWAP1 REVERT JUMPDEST PUSH1 0x64 PUSH1 0x40 MLOAD PUSH3 0x461BCD PUSH1 0xE5 SHL DUP2 MSTORE PUSH1 0x20 PUSH1 0x4 DUP3 ADD MSTORE PUSH1 0x20 PUSH1 0x24 DUP3 ADD MSTORE PUSH32 0x507265636F6D70696C656420636F6E74726163742063616C6C206661696C6564 PUSH1 0x44 DUP3 ADD MSTORE REVERT JUMPDEST PUSH1 0x60 SWAP1 PUSH2 0x176A JUMP JUMPDEST PUSH1 0x40 MLOAD PUSH4 0xF6975653 PUSH1 0xE0 SHL DUP2 MSTORE PUSH1 0x0 PUSH1 0x4 DUP3 ADD MSTORE PUSH1 0x1 PUSH1 0x24 DUP3 ADD MSTORE PUSH1 0x1 PUSH1 0x1 PUSH1 0xA0 SHL SUB SWAP2 DUP3 AND PUSH1 0x44 DUP3 ADD MSTORE SWAP2 DUP2 AND PUSH1 0x64 DUP4 ADD MSTORE SWAP1 SWAP2 AND PUSH1 0x84 DUP3 ADD MSTORE PUSH3 0xF4240 PUSH1 0xA4 DUP3 ADD MSTORE PUSH2 0x100 PUSH1 0xC4 DUP3 ADD MSTORE SWAP2 PUSH1 0x20 SWAP2 DUP4 SWAP2 DUP3 SWAP2 PUSH2 0x1899 SWAP2 SWAP1 PUSH2 0x1043 SWAP1 PUSH2 0x104 DUP6 ADD SWAP1 PUSH2 0x160A JUMP JUMPDEST SUB DUP2 PUSH1 0x0 PUSH1 0xFD GAS CALL DUP1 ISZERO PUSH2 0x4CA JUMPI PUSH2 0x16EB JUMPI POP JUMP JUMPDEST PUSH1 0x40 MLOAD PUSH4 0xF6975653 PUSH1 0xE0 SHL DUP2 MSTORE PUSH1 0x0 PUSH1 0x4 DUP3 ADD DUP2 SWAP1 MSTORE PUSH1 0x24 DUP3 ADD DUP2 SWAP1 MSTORE PUSH1 0x1 PUSH1 0x1 PUSH1 0xA0 SHL SUB SWAP3 DUP4 AND PUSH1 0x44 DUP4 ADD MSTORE PUSH1 0x64 DUP3 ADD DUP2 SWAP1 MSTORE SWAP2 SWAP1 SWAP3 AND PUSH1 0x84 DUP4 ADD MSTORE PUSH1 0xA4 DUP3 ADD MSTORE PUSH2 0x100 PUSH1 0xC4 DUP3 ADD MSTORE SWAP1 PUSH1 0x20 SWAP1 DUP3 SWAP1 DUP2 SWAP1 PUSH2 0x1899 SWAP1 PUSH2 0x1043 PUSH2 0x104 DUP5 ADD PUSH1 0x60 PUSH2 0x160A JUMP JUMPDEST PUSH1 0x40 MLOAD PUSH4 0x9614DDAF PUSH1 0xE0 SHL DUP2 MSTORE PUSH1 0x1 PUSH1 0x1 PUSH1 0xA0 SHL SUB SWAP3 DUP4 AND PUSH1 0x4 DUP3 ADD MSTORE SWAP2 AND PUSH1 0x24 DUP3 ADD MSTORE PUSH1 0x20 DUP2 PUSH1 0x44 DUP2 PUSH1 0xD1 GAS STATICCALL SWAP1 DUP2 ISZERO PUSH2 0x4CA JUMPI PUSH1 0x0 SWAP2 PUSH2 0x1953 JUMPI POP SWAP1 JUMP JUMPDEST SWAP1 POP PUSH1 0x20 DUP2 RETURNDATASIZE PUSH1 0x20 GT PUSH2 0x197A JUMPI JUMPDEST DUP2 PUSH2 0x196E PUSH1 0x20 SWAP4 DUP4 PUSH2 0x1231 JUMP JUMPDEST DUP2 ADD SUB SLT PUSH2 0x188 JUMPI MLOAD SWAP1 JUMP JUMPDEST RETURNDATASIZE SWAP2 POP PUSH2 0x1961 JUMP JUMPDEST PUSH1 0x40 MLOAD PUSH4 0x4016D87 PUSH1 0xE5 SHL DUP2 MSTORE PUSH1 0x0 DUP2 PUSH1 0x4 DUP2 DUP4 PUSH1 0xD3 GAS CALL SWAP1 DUP2 ISZERO PUSH2 0x4CA JUMPI PUSH1 0x0 SWAP2 PUSH2 0x19AC JUMPI POP SWAP1 JUMP JUMPDEST SWAP1 RETURNDATASIZE DUP1 DUP3 DUP5 RETURNDATACOPY PUSH2 0x19BC DUP2 DUP5 PUSH2 0x1231 JUMP JUMPDEST DUP3 ADD SWAP2 PUSH1 0x20 DUP2 DUP5 SUB SLT PUSH2 0x1A68 JUMPI DUP1 MLOAD SWAP1 PUSH8 0xFFFFFFFFFFFFFFFF DUP3 GT PUSH2 0x1A64 JUMPI ADD DUP3 PUSH1 0x1F DUP3 ADD SLT ISZERO PUSH2 0x1A68 JUMPI DUP1 MLOAD SWAP2 PUSH2 0x19F3 DUP4 PUSH2 0x1484 JUMP JUMPDEST SWAP4 PUSH2 0x1A01 PUSH1 0x40 MLOAD SWAP6 DUP7 PUSH2 0x1231 JUMP JUMPDEST DUP4 DUP6 MSTORE PUSH1 0x20 DUP1 DUP7 ADD SWAP5 PUSH1 0x6 SHL DUP5 ADD ADD SWAP3 DUP2 DUP5 GT PUSH2 0x1A64 JUMPI PUSH1 0x20 ADD SWAP4 JUMPDEST DUP4 DUP6 LT PUSH2 0x1A2C JUMPI POP POP POP POP POP SWAP1 JUMP JUMPDEST PUSH1 0x40 DUP6 DUP4 SUB SLT PUSH2 0x1A64 JUMPI PUSH1 0x20 PUSH1 0x40 SWAP2 DUP3 MLOAD PUSH2 0x1A46 DUP2 PUSH2 0x1215 JUMP JUMPDEST PUSH2 0x1A4F DUP9 PUSH2 0x1389 JUMP JUMPDEST DUP2 MSTORE DUP3 DUP9 ADD MLOAD DUP4 DUP3 ADD MSTORE DUP2 MSTORE ADD SWAP5 ADD SWAP4 PUSH2 0x1A1D JUMP JUMPDEST DUP3 DUP1 REVERT JUMPDEST POP DUP1 REVERT INVALID 0xB1 0xE 0x2D MSTORE PUSH23 0x12073B26EECDFD717E6A320CF44B4AFAC2B0732D9FCBE2 0xB7 STATICCALL 0xC 0xF6 LOG2 PUSH5 0x6970667358 0x22 SLT KECCAK256 0xB6 0x2C LOG4 0x1E SWAP7 LOG0 0xEE PUSH32 0x7EAD43200E07B38C911D6D2C755CDBA99D335DB5252F958164736F6C63430008 SHR STOP CALLER "},"methodIdentifiers":{"borrow(uint256,address)":"4b3fd148","burnToken(uint256)":"7b47ec1a","deposit()":"d0e30db0","eth()":"8c7c9e0c","finalizeLoan(bool,bytes,bytes)":"4761a3ee","getOwnTokenBalance()":"d19b9b75","getTokenBalanceOf(address)":"83894548","getTokenId()":"010a38f5","getTokenName()":"862b092b","getTokenTotalSupply()":"57df844b","globalLedger()":"10401774","handleRepayment(bool,bytes,bytes)":"659dbf99","interestManager()":"ee065e11","mintToken(uint256)":"c634d032","oracle()":"7dc0d1d0","processLoan(bool,bytes,bytes)":"46fe5431","processRepayment(bool,bytes,bytes)":"eeaf7d8e","releaseCollateral(bool,bytes)":"0998702f","repayLoan()":"f966ade7","sendCollateral(bool,bytes,bytes)":"c59e1c8f","sendToken(address,address,uint256)":"2fdcfbd2","setTokenName(string)":"a4f29aad","usdt()":"2f48ab7d"}}}}}