{"contracts/CollateralManager.sol":{"GlobalLedger":{"abi":[{"inputs":[{"internalType":"address","name":"","type":"address"},{"internalType":"TokenId","name":"","type":"address"}],"name":"deposits","outputs":[{"internalType":"uint256","name":"","type":"uint256"}],"stateMutability":"view","type":"function"},{"inputs":[{"internalType":"address","name":"user","type":"address"},{"internalType":"TokenId","name":"token","type":"address"}],"name":"getDeposit","outputs":[{"internalType":"uint256","name":"","type":"uint256"}],"stateMutability":"view","type":"function"},{"inputs":[{"internalType":"address","name":"user","type":"address"}],"name":"getLoanDetails","outputs":[{"internalType":"uint256","name":"","type":"uint256"},{"internalType":"TokenId","name":"","type":"address"}],"stateMutability":"view","type":"function"},{"inputs":[{"internalType":"address","name":"","type":"address"}],"name":"loans","outputs":[{"internalType":"uint256","name":"amount","type":"uint256"},{"internalType":"TokenId","name":"token","type":"address"}],"stateMutability":"view","type":"function"},{"inputs":[{"internalType":"address","name":"user","type":"address"},{"internalType":"TokenId","name":"token","type":"address"},{"internalType":"uint256","name":"amount","type":"uint256"}],"name":"recordDeposit","outputs":[],"stateMutability":"nonpayable","type":"function"},{"inputs":[{"internalType":"address","name":"user","type":"address"},{"internalType":"TokenId","name":"token","type":"address"},{"internalType":"uint256","name":"amount","type":"uint256"}],"name":"recordLoan","outputs":[],"stateMutability":"nonpayable","type":"function"}],"evm":{"bytecode":{"linkReferences":{},"object":"608080604052346015576102d4908161001b8239f35b600080fdfe608080604052600436101561001357600080fd5b60003560e01c90816373b4086b146101ea575080638f601f661461019b578063c35082a91461019b578063dd6e8c2014610110578063e8599307146100b35763e8a7da8e1461006157600080fd5b346100ae5760203660031901126100ae576001600160a01b03610082610238565b16600090815260016020818152604092839020805492015483519283526001600160a01b031690820152f35b600080fd5b346100ae576100c136610264565b9160018060a01b0316600052600060205260406000209060018060a01b0316600052602052604060002080549182018092116100fa5755005b634e487b7160e01b600052601160045260246000fd5b346100ae5761011e36610264565b909160405190604082019282841067ffffffffffffffff85111761018557604093845282526001600160a01b039384166020808401918252918516600090815260019283905293909320915182559151910180546001600160a01b03191691909216179055005b634e487b7160e01b600052604160045260246000fd5b346100ae5760403660031901126100ae576101b4610238565b6101bc61024e565b6001600160a01b03918216600090815260208181526040808320949093168252928352819020549051908152f35b346100ae5760203660031901126100ae576001600160a01b0361020b610238565b1660009081526001602081815260409283902080549201549184526001600160a01b039091169083015290f35b600435906001600160a01b03821682036100ae57565b602435906001600160a01b03821682036100ae57565b60609060031901126100ae576004356001600160a01b03811681036100ae57906024356001600160a01b03811681036100ae57906044359056fea264697066735822122085ac21637de78f422ad75cca301479f1f863d52ff49c2310e44255606d70e02e64736f6c634300081c0033","opcodes":"PUSH1 0x80 DUP1 PUSH1 0x40 MSTORE CALLVALUE PUSH1 0x15 JUMPI PUSH2 0x2D4 SWAP1 DUP2 PUSH2 0x1B DUP3 CODECOPY RETURN JUMPDEST PUSH1 0x0 DUP1 REVERT INVALID PUSH1 0x80 DUP1 PUSH1 0x40 MSTORE PUSH1 0x4 CALLDATASIZE LT ISZERO PUSH2 0x13 JUMPI PUSH1 0x0 DUP1 REVERT JUMPDEST PUSH1 0x0 CALLDATALOAD PUSH1 0xE0 SHR SWAP1 DUP2 PUSH4 0x73B4086B EQ PUSH2 0x1EA JUMPI POP DUP1 PUSH4 0x8F601F66 EQ PUSH2 0x19B JUMPI DUP1 PUSH4 0xC35082A9 EQ PUSH2 0x19B JUMPI DUP1 PUSH4 0xDD6E8C20 EQ PUSH2 0x110 JUMPI DUP1 PUSH4 0xE8599307 EQ PUSH2 0xB3 JUMPI PUSH4 0xE8A7DA8E EQ PUSH2 0x61 JUMPI PUSH1 0x0 DUP1 REVERT JUMPDEST CALLVALUE PUSH2 0xAE JUMPI PUSH1 0x20 CALLDATASIZE PUSH1 0x3 NOT ADD SLT PUSH2 0xAE JUMPI PUSH1 0x1 PUSH1 0x1 PUSH1 0xA0 SHL SUB PUSH2 0x82 PUSH2 0x238 JUMP JUMPDEST AND PUSH1 0x0 SWAP1 DUP2 MSTORE PUSH1 0x1 PUSH1 0x20 DUP2 DUP2 MSTORE PUSH1 0x40 SWAP3 DUP4 SWAP1 KECCAK256 DUP1 SLOAD SWAP3 ADD SLOAD DUP4 MLOAD SWAP3 DUP4 MSTORE PUSH1 0x1 PUSH1 0x1 PUSH1 0xA0 SHL SUB AND SWAP1 DUP3 ADD MSTORE RETURN JUMPDEST PUSH1 0x0 DUP1 REVERT JUMPDEST CALLVALUE PUSH2 0xAE JUMPI PUSH2 0xC1 CALLDATASIZE PUSH2 0x264 JUMP JUMPDEST SWAP2 PUSH1 0x1 DUP1 PUSH1 0xA0 SHL SUB AND PUSH1 0x0 MSTORE PUSH1 0x0 PUSH1 0x20 MSTORE PUSH1 0x40 PUSH1 0x0 KECCAK256 SWAP1 PUSH1 0x1 DUP1 PUSH1 0xA0 SHL SUB AND PUSH1 0x0 MSTORE PUSH1 0x20 MSTORE PUSH1 0x40 PUSH1 0x0 KECCAK256 DUP1 SLOAD SWAP2 DUP3 ADD DUP1 SWAP3 GT PUSH2 0xFA JUMPI SSTORE STOP JUMPDEST PUSH4 0x4E487B71 PUSH1 0xE0 SHL PUSH1 0x0 MSTORE PUSH1 0x11 PUSH1 0x4 MSTORE PUSH1 0x24 PUSH1 0x0 REVERT JUMPDEST CALLVALUE PUSH2 0xAE JUMPI PUSH2 0x11E CALLDATASIZE PUSH2 0x264 JUMP JUMPDEST SWAP1 SWAP2 PUSH1 0x40 MLOAD SWAP1 PUSH1 0x40 DUP3 ADD SWAP3 DUP3 DUP5 LT PUSH8 0xFFFFFFFFFFFFFFFF DUP6 GT OR PUSH2 0x185 JUMPI PUSH1 0x40 SWAP4 DUP5 MSTORE DUP3 MSTORE PUSH1 0x1 PUSH1 0x1 PUSH1 0xA0 SHL SUB SWAP4 DUP5 AND PUSH1 0x20 DUP1 DUP5 ADD SWAP2 DUP3 MSTORE SWAP2 DUP6 AND PUSH1 0x0 SWAP1 DUP2 MSTORE PUSH1 0x1 SWAP3 DUP4 SWAP1 MSTORE SWAP4 SWAP1 SWAP4 KECCAK256 SWAP2 MLOAD DUP3 SSTORE SWAP2 MLOAD SWAP2 ADD DUP1 SLOAD PUSH1 0x1 PUSH1 0x1 PUSH1 0xA0 SHL SUB NOT AND SWAP2 SWAP1 SWAP3 AND OR SWAP1 SSTORE STOP JUMPDEST PUSH4 0x4E487B71 PUSH1 0xE0 SHL PUSH1 0x0 MSTORE PUSH1 0x41 PUSH1 0x4 MSTORE PUSH1 0x24 PUSH1 0x0 REVERT JUMPDEST CALLVALUE PUSH2 0xAE JUMPI PUSH1 0x40 CALLDATASIZE PUSH1 0x3 NOT ADD SLT PUSH2 0xAE JUMPI PUSH2 0x1B4 PUSH2 0x238 JUMP JUMPDEST PUSH2 0x1BC PUSH2 0x24E JUMP JUMPDEST PUSH1 0x1 PUSH1 0x1 PUSH1 0xA0 SHL SUB SWAP2 DUP3 AND PUSH1 0x0 SWAP1 DUP2 MSTORE PUSH1 0x20 DUP2 DUP2 MSTORE PUSH1 0x40 DUP1 DUP4 KECCAK256 SWAP5 SWAP1 SWAP4 AND DUP3 MSTORE SWAP3 DUP4 MSTORE DUP2 SWAP1 KECCAK256 SLOAD SWAP1 MLOAD SWAP1 DUP2 MSTORE RETURN JUMPDEST CALLVALUE PUSH2 0xAE JUMPI PUSH1 0x20 CALLDATASIZE PUSH1 0x3 NOT ADD SLT PUSH2 0xAE JUMPI PUSH1 0x1 PUSH1 0x1 PUSH1 0xA0 SHL SUB PUSH2 0x20B PUSH2 0x238 JUMP JUMPDEST AND PUSH1 0x0 SWAP1 DUP2 MSTORE PUSH1 0x1 PUSH1 0x20 DUP2 DUP2 MSTORE PUSH1 0x40 SWAP3 DUP4 SWAP1 KECCAK256 DUP1 SLOAD SWAP3 ADD SLOAD SWAP2 DUP5 MSTORE PUSH1 0x1 PUSH1 0x1 PUSH1 0xA0 SHL SUB SWAP1 SWAP2 AND SWAP1 DUP4 ADD MSTORE SWAP1 RETURN JUMPDEST PUSH1 0x4 CALLDATALOAD SWAP1 PUSH1 0x1 PUSH1 0x1 PUSH1 0xA0 SHL SUB DUP3 AND DUP3 SUB PUSH2 0xAE JUMPI JUMP JUMPDEST PUSH1 0x24 CALLDATALOAD SWAP1 PUSH1 0x1 PUSH1 0x1 PUSH1 0xA0 SHL SUB DUP3 AND DUP3 SUB PUSH2 0xAE JUMPI JUMP JUMPDEST PUSH1 0x60 SWAP1 PUSH1 0x3 NOT ADD SLT PUSH2 0xAE JUMPI PUSH1 0x4 CALLDATALOAD PUSH1 0x1 PUSH1 0x1 PUSH1 0xA0 SHL SUB DUP2 AND DUP2 SUB PUSH2 0xAE JUMPI SWAP1 PUSH1 0x24 CALLDATALOAD PUSH1 0x1 PUSH1 0x1 PUSH1 0xA0 SHL SUB DUP2 AND DUP2 SUB PUSH2 0xAE JUMPI SWAP1 PUSH1 0x44 CALLDATALOAD SWAP1 JUMP INVALID LOG2 PUSH5 0x6970667358 0x22 SLT KECCAK256 DUP6 0xAC 0x21 PUSH4 0x7DE78F42 0x2A 0xD7 TLOAD 0xCA ADDRESS EQ PUSH26 0xF1F863D52FF49C2310E44255606D70E02E64736F6C634300081C STOP CALLER "},"methodIdentifiers":{"deposits(address,address)":"8f601f66","getDeposit(address,address)":"c35082a9","getLoanDetails(address)":"e8a7da8e","loans(address)":"73b4086b","recordDeposit(address,address,uint256)":"e8599307","recordLoan(address,address,uint256)":"dd6e8c20"}}}}}